{
  "_format": "hh-sol-artifact-1",
  "contractName": "SimpleDexV2",
  "sourceName": "contracts/SimpleDexV2.sol",
  "abi": [
    {
      "inputs": [
        {
          "internalType": "address",
          "name": "owner",
          "type": "address"
        }
      ],
      "name": "OwnableInvalidOwner",
      "type": "error"
    },
    {
      "inputs": [
        {
          "internalType": "address",
          "name": "account",
          "type": "address"
        }
      ],
      "name": "OwnableUnauthorizedAccount",
      "type": "error"
    },
    {
      "anonymous": false,
      "inputs": [
        {
          "indexed": true,
          "internalType": "address",
          "name": "provider",
          "type": "address"
        },
        {
          "indexed": false,
          "internalType": "address",
          "name": "tokenA",
          "type": "address"
        },
        {
          "indexed": false,
          "internalType": "address",
          "name": "tokenB",
          "type": "address"
        },
        {
          "indexed": false,
          "internalType": "uint256",
          "name": "amountA",
          "type": "uint256"
        },
        {
          "indexed": false,
          "internalType": "uint256",
          "name": "amountB",
          "type": "uint256"
        },
        {
          "indexed": false,
          "internalType": "uint256",
          "name": "liquidity",
          "type": "uint256"
        }
      ],
      "name": "LiquidityAdded",
      "type": "event"
    },
    {
      "anonymous": false,
      "inputs": [
        {
          "indexed": true,
          "internalType": "address",
          "name": "provider",
          "type": "address"
        },
        {
          "indexed": false,
          "internalType": "address",
          "name": "tokenA",
          "type": "address"
        },
        {
          "indexed": false,
          "internalType": "address",
          "name": "tokenB",
          "type": "address"
        },
        {
          "indexed": false,
          "internalType": "uint256",
          "name": "liquidity",
          "type": "uint256"
        }
      ],
      "name": "LiquidityRemoved",
      "type": "event"
    },
    {
      "anonymous": false,
      "inputs": [
        {
          "indexed": true,
          "internalType": "address",
          "name": "previousOwner",
          "type": "address"
        },
        {
          "indexed": true,
          "internalType": "address",
          "name": "newOwner",
          "type": "address"
        }
      ],
      "name": "OwnershipTransferred",
      "type": "event"
    },
    {
      "anonymous": false,
      "inputs": [
        {
          "indexed": true,
          "internalType": "address",
          "name": "sender",
          "type": "address"
        },
        {
          "indexed": false,
          "internalType": "address",
          "name": "tokenIn",
          "type": "address"
        },
        {
          "indexed": false,
          "internalType": "address",
          "name": "tokenOut",
          "type": "address"
        },
        {
          "indexed": false,
          "internalType": "uint256",
          "name": "amountIn",
          "type": "uint256"
        },
        {
          "indexed": false,
          "internalType": "uint256",
          "name": "amountOut",
          "type": "uint256"
        }
      ],
      "name": "Swap",
      "type": "event"
    },
    {
      "inputs": [
        {
          "internalType": "address",
          "name": "tokenA",
          "type": "address"
        },
        {
          "internalType": "address",
          "name": "tokenB",
          "type": "address"
        },
        {
          "internalType": "uint256",
          "name": "amountA",
          "type": "uint256"
        },
        {
          "internalType": "uint256",
          "name": "amountB",
          "type": "uint256"
        }
      ],
      "name": "addLiquidity",
      "outputs": [
        {
          "internalType": "uint256",
          "name": "liquidity",
          "type": "uint256"
        }
      ],
      "stateMutability": "nonpayable",
      "type": "function"
    },
    {
      "inputs": [
        {
          "internalType": "address",
          "name": "tokenA",
          "type": "address"
        },
        {
          "internalType": "address",
          "name": "tokenB",
          "type": "address"
        }
      ],
      "name": "getMyLiquidity",
      "outputs": [
        {
          "internalType": "uint256",
          "name": "liquidity",
          "type": "uint256"
        }
      ],
      "stateMutability": "view",
      "type": "function"
    },
    {
      "inputs": [],
      "name": "owner",
      "outputs": [
        {
          "internalType": "address",
          "name": "",
          "type": "address"
        }
      ],
      "stateMutability": "view",
      "type": "function"
    },
    {
      "inputs": [
        {
          "internalType": "address",
          "name": "",
          "type": "address"
        },
        {
          "internalType": "address",
          "name": "",
          "type": "address"
        }
      ],
      "name": "pools",
      "outputs": [
        {
          "internalType": "uint256",
          "name": "tokenAReserve",
          "type": "uint256"
        },
        {
          "internalType": "uint256",
          "name": "tokenBReserve",
          "type": "uint256"
        },
        {
          "internalType": "uint256",
          "name": "totalLiquidity",
          "type": "uint256"
        }
      ],
      "stateMutability": "view",
      "type": "function"
    },
    {
      "inputs": [
        {
          "internalType": "address",
          "name": "tokenA",
          "type": "address"
        },
        {
          "internalType": "address",
          "name": "tokenB",
          "type": "address"
        },
        {
          "internalType": "uint256",
          "name": "liquidity",
          "type": "uint256"
        }
      ],
      "name": "removeLiquidity",
      "outputs": [],
      "stateMutability": "nonpayable",
      "type": "function"
    },
    {
      "inputs": [],
      "name": "renounceOwnership",
      "outputs": [],
      "stateMutability": "nonpayable",
      "type": "function"
    },
    {
      "inputs": [
        {
          "internalType": "address",
          "name": "tokenA",
          "type": "address"
        },
        {
          "internalType": "address",
          "name": "tokenB",
          "type": "address"
        }
      ],
      "name": "resetPool",
      "outputs": [],
      "stateMutability": "nonpayable",
      "type": "function"
    },
    {
      "inputs": [
        {
          "internalType": "address",
          "name": "tokenIn",
          "type": "address"
        },
        {
          "internalType": "address",
          "name": "tokenOut",
          "type": "address"
        },
        {
          "internalType": "uint256",
          "name": "amountIn",
          "type": "uint256"
        }
      ],
      "name": "swap",
      "outputs": [
        {
          "internalType": "uint256",
          "name": "amountOut",
          "type": "uint256"
        }
      ],
      "stateMutability": "nonpayable",
      "type": "function"
    },
    {
      "inputs": [
        {
          "internalType": "address",
          "name": "newOwner",
          "type": "address"
        }
      ],
      "name": "transferOwnership",
      "outputs": [],
      "stateMutability": "nonpayable",
      "type": "function"
    }
  ],
  "bytecode": "0x608060405234801561001057600080fd5b5033600073ffffffffffffffffffffffffffffffffffffffff168173ffffffffffffffffffffffffffffffffffffffff16036100845760006040517f1e4fbdf700000000000000000000000000000000000000000000000000000000815260040161007b919061019e565b60405180910390fd5b6100938161009960201b60201c565b506101b9565b60008060009054906101000a900473ffffffffffffffffffffffffffffffffffffffff169050816000806101000a81548173ffffffffffffffffffffffffffffffffffffffff021916908373ffffffffffffffffffffffffffffffffffffffff1602179055508173ffffffffffffffffffffffffffffffffffffffff168173ffffffffffffffffffffffffffffffffffffffff167f8be0079c531659141344cd1fd0a4f28419497f9722a3daafe3b4186f6b6457e060405160405180910390a35050565b600073ffffffffffffffffffffffffffffffffffffffff82169050919050565b60006101888261015d565b9050919050565b6101988161017d565b82525050565b60006020820190506101b3600083018461018f565b92915050565b612490806101c86000396000f3fe608060405234801561001057600080fd5b50600436106100935760003560e01c8063a94084f511610066578063a94084f51461010e578063cf6c62ea1461013e578063d752fab21461016e578063df791e501461018a578063f2fde38b146101ba57610093565b8063715018a6146100985780637a11dfbd146100a25780638da5cb5b146100be578063901754d7146100dc575b600080fd5b6100a06101d6565b005b6100bc60048036038101906100b79190611b33565b6101ea565b005b6100c66104b5565b6040516100d39190611b82565b60405180910390f35b6100f660048036038101906100f19190611b33565b6104de565b60405161010593929190611bb6565b60405180910390f35b61012860048036038101906101239190611b33565b610515565b6040516101359190611bed565b60405180910390f35b61015860048036038101906101539190611c34565b6105dc565b6040516101659190611bed565b60405180910390f35b61018860048036038101906101839190611c9b565b610bef565b005b6101a4600480360381019061019f9190611c9b565b6111ec565b6040516101b19190611bed565b60405180910390f35b6101d460048036038101906101cf9190611cee565b61175c565b005b6101de6117e2565b6101e86000611869565b565b6101f26117e2565b8073ffffffffffffffffffffffffffffffffffffffff168273ffffffffffffffffffffffffffffffffffffffff1603610260576040517f08c379a000000000000000000000000000000000000000000000000000000000815260040161025790611d9e565b60405180910390fd5b6000600160008473ffffffffffffffffffffffffffffffffffffffff1673ffffffffffffffffffffffffffffffffffffffff16815260200190815260200160002060008373ffffffffffffffffffffffffffffffffffffffff1673ffffffffffffffffffffffffffffffffffffffff1681526020019081526020016000206002015411610322576040517f08c379a000000000000000000000000000000000000000000000000000000000815260040161031990611e0a565b60405180910390fd5b6000600160008473ffffffffffffffffffffffffffffffffffffffff1673ffffffffffffffffffffffffffffffffffffffff16815260200190815260200160002060008373ffffffffffffffffffffffffffffffffffffffff1673ffffffffffffffffffffffffffffffffffffffff168152602001908152602001600020600001819055506000600160008473ffffffffffffffffffffffffffffffffffffffff1673ffffffffffffffffffffffffffffffffffffffff16815260200190815260200160002060008373ffffffffffffffffffffffffffffffffffffffff1673ffffffffffffffffffffffffffffffffffffffff168152602001908152602001600020600101819055506000600160008473ffffffffffffffffffffffffffffffffffffffff1673ffffffffffffffffffffffffffffffffffffffff16815260200190815260200160002060008373ffffffffffffffffffffffffffffffffffffffff1673ffffffffffffffffffffffffffffffffffffffff168152602001908152602001600020600201819055505050565b60008060009054906101000a900473ffffffffffffffffffffffffffffffffffffffff16905090565b6001602052816000526040600020602052806000526040600020600091509150508060000154908060010154908060020154905083565b6000600160008473ffffffffffffffffffffffffffffffffffffffff1673ffffffffffffffffffffffffffffffffffffffff16815260200190815260200160002060008373ffffffffffffffffffffffffffffffffffffffff1673ffffffffffffffffffffffffffffffffffffffff16815260200190815260200160002060030160003373ffffffffffffffffffffffffffffffffffffffff1673ffffffffffffffffffffffffffffffffffffffff16815260200190815260200160002054905092915050565b600061061c6040518060400160405280602081526020017f2d2d2d2d2d2d2d2d2d2d2d2d2d2d2d2d2d2d2d2d2d2d2d2d2d2d2d2d2d2d2d2d81525061192d565b8373ffffffffffffffffffffffffffffffffffffffff168573ffffffffffffffffffffffffffffffffffffffff160361068a576040517f08c379a000000000000000000000000000000000000000000000000000000000815260040161068190611d9e565b60405180910390fd5b60008311801561069a5750600082115b6106d9576040517f08c379a00000000000000000000000000000000000000000000000000000000081526004016106d090611e76565b60405180910390fd5b8373ffffffffffffffffffffffffffffffffffffffff168573ffffffffffffffffffffffffffffffffffffffff1611156107225783858095508196505050818380935081945050505b60008590506000859050848273ffffffffffffffffffffffffffffffffffffffff166370a08231336040518263ffffffff1660e01b81526004016107669190611b82565b602060405180830381865afa158015610783573d6000803e3d6000fd5b505050506040513d601f19601f820116820180604052508101906107a79190611eab565b10156107e8576040517f08c379a00000000000000000000000000000000000000000000000000000000081526004016107df90611f24565b60405180910390fd5b838173ffffffffffffffffffffffffffffffffffffffff166370a08231336040518263ffffffff1660e01b81526004016108229190611b82565b602060405180830381865afa15801561083f573d6000803e3d6000fd5b505050506040513d601f19601f820116820180604052508101906108639190611eab565b10156108a4576040517f08c379a000000000000000000000000000000000000000000000000000000000815260040161089b90611f24565b60405180910390fd5b8173ffffffffffffffffffffffffffffffffffffffff166323b872dd3330886040518463ffffffff1660e01b81526004016108e193929190611f44565b6020604051808303816000875af1158015610900573d6000803e3d6000fd5b505050506040513d601f19601f820116820180604052508101906109249190611fb3565b508073ffffffffffffffffffffffffffffffffffffffff166323b872dd3330876040518463ffffffff1660e01b815260040161096293929190611f44565b6020604051808303816000875af1158015610981573d6000803e3d6000fd5b505050506040513d601f19601f820116820180604052508101906109a59190611fb3565b506000600160008973ffffffffffffffffffffffffffffffffffffffff1673ffffffffffffffffffffffffffffffffffffffff16815260200190815260200160002060008873ffffffffffffffffffffffffffffffffffffffff1673ffffffffffffffffffffffffffffffffffffffff16815260200190815260200160002090506000816002015403610a9057610a468587610a41919061200f565b6119c6565b935060008411610a8b576040517f08c379a0000000000000000000000000000000000000000000000000000000008152600401610a829061209d565b60405180910390fd5b610ae5565b60008160000154826002015488610aa7919061200f565b610ab191906120ec565b905060008260010154836002015488610aca919061200f565b610ad491906120ec565b9050610ae08282611a3b565b955050505b85816000016000828254610af9919061211d565b9250508190555084816001016000828254610b14919061211d565b9250508190555083816002016000828254610b2f919061211d565b92505081905550838160030160003373ffffffffffffffffffffffffffffffffffffffff1673ffffffffffffffffffffffffffffffffffffffff1681526020019081526020016000206000828254610b87919061211d565b925050819055503373ffffffffffffffffffffffffffffffffffffffff167f43c967b388d3a4ccad3f7ab80167852e322e5a3fde9893f530252281b2ae8b708989898989604051610bdc959493929190612151565b60405180910390a2505050949350505050565b80600160008573ffffffffffffffffffffffffffffffffffffffff1673ffffffffffffffffffffffffffffffffffffffff16815260200190815260200160002060008473ffffffffffffffffffffffffffffffffffffffff1673ffffffffffffffffffffffffffffffffffffffff16815260200190815260200160002060030160003373ffffffffffffffffffffffffffffffffffffffff1673ffffffffffffffffffffffffffffffffffffffff168152602001908152602001600020541015610cee576040517f08c379a0000000000000000000000000000000000000000000000000000000008152600401610ce59061209d565b60405180910390fd5b80600160008573ffffffffffffffffffffffffffffffffffffffff1673ffffffffffffffffffffffffffffffffffffffff16815260200190815260200160002060008473ffffffffffffffffffffffffffffffffffffffff1673ffffffffffffffffffffffffffffffffffffffff16815260200190815260200160002060030160003373ffffffffffffffffffffffffffffffffffffffff1673ffffffffffffffffffffffffffffffffffffffff1681526020019081526020016000206000828254610dba91906121a4565b9250508190555080600160008573ffffffffffffffffffffffffffffffffffffffff1673ffffffffffffffffffffffffffffffffffffffff16815260200190815260200160002060008473ffffffffffffffffffffffffffffffffffffffff1673ffffffffffffffffffffffffffffffffffffffff1681526020019081526020016000206002016000828254610e5091906121a4565b925050819055506000600160008573ffffffffffffffffffffffffffffffffffffffff1673ffffffffffffffffffffffffffffffffffffffff16815260200190815260200160002060008473ffffffffffffffffffffffffffffffffffffffff1673ffffffffffffffffffffffffffffffffffffffff1681526020019081526020016000206000015490506000600160008673ffffffffffffffffffffffffffffffffffffffff1673ffffffffffffffffffffffffffffffffffffffff16815260200190815260200160002060008573ffffffffffffffffffffffffffffffffffffffff1673ffffffffffffffffffffffffffffffffffffffff1681526020019081526020016000206001015490506000600160008773ffffffffffffffffffffffffffffffffffffffff1673ffffffffffffffffffffffffffffffffffffffff16815260200190815260200160002060008673ffffffffffffffffffffffffffffffffffffffff1673ffffffffffffffffffffffffffffffffffffffff168152602001908152602001600020600201548385610fed919061200f565b610ff791906120ec565b90506000600160008873ffffffffffffffffffffffffffffffffffffffff1673ffffffffffffffffffffffffffffffffffffffff16815260200190815260200160002060008773ffffffffffffffffffffffffffffffffffffffff1673ffffffffffffffffffffffffffffffffffffffff168152602001908152602001600020600201548386611087919061200f565b61109191906120ec565b90508673ffffffffffffffffffffffffffffffffffffffff1663a9059cbb33846040518363ffffffff1660e01b81526004016110ce9291906121d8565b6020604051808303816000875af11580156110ed573d6000803e3d6000fd5b505050506040513d601f19601f820116820180604052508101906111119190611fb3565b508573ffffffffffffffffffffffffffffffffffffffff1663a9059cbb33836040518363ffffffff1660e01b815260040161114d9291906121d8565b6020604051808303816000875af115801561116c573d6000803e3d6000fd5b505050506040513d601f19601f820116820180604052508101906111909190611fb3565b503373ffffffffffffffffffffffffffffffffffffffff167f94f1f3125c0ce3e87e73be7798f37f42710fa4c304b51ee82698965e200afa738888886040516111db93929190611f44565b60405180910390a250505050505050565b60008273ffffffffffffffffffffffffffffffffffffffff168473ffffffffffffffffffffffffffffffffffffffff160361125c576040517f08c379a00000000000000000000000000000000000000000000000000000000081526004016112539061224d565b60405180910390fd5b6000821161129f576040517f08c379a0000000000000000000000000000000000000000000000000000000008152600401611296906122b9565b60405180910390fd5b60008373ffffffffffffffffffffffffffffffffffffffff168573ffffffffffffffffffffffffffffffffffffffff161190506000816112df57856112e1565b845b90506000826112f057856112f2565b865b90506000600160008473ffffffffffffffffffffffffffffffffffffffff1673ffffffffffffffffffffffffffffffffffffffff16815260200190815260200160002060008373ffffffffffffffffffffffffffffffffffffffff1673ffffffffffffffffffffffffffffffffffffffff168152602001908152602001600020905060008160020154116113bb576040517f08c379a00000000000000000000000000000000000000000000000000000000081526004016113b290611e0a565b60405180910390fd5b6000846113cc5781600001546113d2565b81600101545b90506000856113e55782600101546113eb565b82600001545b905060006103e5896113fd919061200f565b90506000828261140d919061200f565b90506000826103e886611420919061200f565b61142a919061211d565b9050808261143891906120ec565b995060008a1161147d576040517f08c379a000000000000000000000000000000000000000000000000000000000815260040161147490612325565b60405180910390fd5b838a106114bf576040517f08c379a00000000000000000000000000000000000000000000000000000000081526004016114b69061209d565b60405180910390fd5b8c73ffffffffffffffffffffffffffffffffffffffff166323b872dd33308e6040518463ffffffff1660e01b81526004016114fc93929190611f44565b6020604051808303816000875af115801561151b573d6000803e3d6000fd5b505050506040513d601f19601f8201168201806040525081019061153f9190611fb3565b5060008c73ffffffffffffffffffffffffffffffffffffffff166370a08231306040518263ffffffff1660e01b815260040161157b9190611b82565b602060405180830381865afa158015611598573d6000803e3d6000fd5b505050506040513d601f19601f820116820180604052508101906115bc9190611eab565b9050808b10611600576040517f08c379a00000000000000000000000000000000000000000000000000000000081526004016115f790611f24565b60405180910390fd5b8c73ffffffffffffffffffffffffffffffffffffffff1663a9059cbb338d6040518363ffffffff1660e01b815260040161163b9291906121d8565b6020604051808303816000875af115801561165a573d6000803e3d6000fd5b505050506040513d601f19601f8201168201806040525081019061167e9190611fb3565b5089156116c0578a87600001600082825461169991906121a4565b925050819055508b8760010160008282546116b4919061211d565b925050819055506116f7565b8b8760000160008282546116d4919061211d565b925050819055508a8760010160008282546116ef91906121a4565b925050819055505b3373ffffffffffffffffffffffffffffffffffffffff167fcd3829a3813dc3cdd188fd3d01dcf3268c16be2fdd2dd21d0665418816e460628f8f8f8f6040516117439493929190612345565b60405180910390a2505050505050505050509392505050565b6117646117e2565b600073ffffffffffffffffffffffffffffffffffffffff168173ffffffffffffffffffffffffffffffffffffffff16036117d65760006040517f1e4fbdf70000000000000000000000000000000000000000000000000000000081526004016117cd9190611b82565b60405180910390fd5b6117df81611869565b50565b6117ea611a52565b73ffffffffffffffffffffffffffffffffffffffff166118086104b5565b73ffffffffffffffffffffffffffffffffffffffff16146118675761182b611a52565b6040517f118cdaa700000000000000000000000000000000000000000000000000000000815260040161185e9190611b82565b60405180910390fd5b565b60008060009054906101000a900473ffffffffffffffffffffffffffffffffffffffff169050816000806101000a81548173ffffffffffffffffffffffffffffffffffffffff021916908373ffffffffffffffffffffffffffffffffffffffff1602179055508173ffffffffffffffffffffffffffffffffffffffff168173ffffffffffffffffffffffffffffffffffffffff167f8be0079c531659141344cd1fd0a4f28419497f9722a3daafe3b4186f6b6457e060405160405180910390a35050565b6119c3816040516024016119419190612409565b6040516020818303038152906040527f41304fac000000000000000000000000000000000000000000000000000000007bffffffffffffffffffffffffffffffffffffffffffffffffffffffff19166020820180517bffffffffffffffffffffffffffffffffffffffffffffffffffffffff8381831617835250505050611a5a565b50565b60008082036119d85760009050611a36565b600060026001846119e9919061211d565b6119f391906120ec565b905060008390505b80821015611a30578190506002828386611a1591906120ec565b611a1f919061211d565b611a2991906120ec565b91506119fb565b80925050505b919050565b6000611a4a8284108484611a74565b905092915050565b600033905090565b611a7181611a69611a8e611aaf565b63ffffffff16565b50565b6000611a7f84611aba565b82841802821890509392505050565b60006a636f6e736f6c652e6c6f679050600080835160208501845afa505050565b611ac6819050919050565b60008115159050919050565b611ace61242b565b565b600080fd5b600073ffffffffffffffffffffffffffffffffffffffff82169050919050565b6000611b0082611ad5565b9050919050565b611b1081611af5565b8114611b1b57600080fd5b50565b600081359050611b2d81611b07565b92915050565b60008060408385031215611b4a57611b49611ad0565b5b6000611b5885828601611b1e565b9250506020611b6985828601611b1e565b9150509250929050565b611b7c81611af5565b82525050565b6000602082019050611b976000830184611b73565b92915050565b6000819050919050565b611bb081611b9d565b82525050565b6000606082019050611bcb6000830186611ba7565b611bd86020830185611ba7565b611be56040830184611ba7565b949350505050565b6000602082019050611c026000830184611ba7565b92915050565b611c1181611b9d565b8114611c1c57600080fd5b50565b600081359050611c2e81611c08565b92915050565b60008060008060808587031215611c4e57611c4d611ad0565b5b6000611c5c87828801611b1e565b9450506020611c6d87828801611b1e565b9350506040611c7e87828801611c1f565b9250506060611c8f87828801611c1f565b91505092959194509250565b600080600060608486031215611cb457611cb3611ad0565b5b6000611cc286828701611b1e565b9350506020611cd386828701611b1e565b9250506040611ce486828701611c1f565b9150509250925092565b600060208284031215611d0457611d03611ad0565b5b6000611d1284828501611b1e565b91505092915050565b600082825260208201905092915050565b7f546f6b656e4120616e6420546f6b656e422063616e6e6f74206265207468652060008201527f73616d6500000000000000000000000000000000000000000000000000000000602082015250565b6000611d88602483611d1b565b9150611d9382611d2c565b604082019050919050565b60006020820190508181036000830152611db781611d7b565b9050919050565b7f506f6f6c206e6f74206578697374730000000000000000000000000000000000600082015250565b6000611df4600f83611d1b565b9150611dff82611dbe565b602082019050919050565b60006020820190508181036000830152611e2381611de7565b9050919050565b7f416d6f756e7473206d7573742062652067726561746572207468616e20300000600082015250565b6000611e60601e83611d1b565b9150611e6b82611e2a565b602082019050919050565b60006020820190508181036000830152611e8f81611e53565b9050919050565b600081519050611ea581611c08565b92915050565b600060208284031215611ec157611ec0611ad0565b5b6000611ecf84828501611e96565b91505092915050565b7f496e73756666696369656e742062616c616e6365000000000000000000000000600082015250565b6000611f0e601483611d1b565b9150611f1982611ed8565b602082019050919050565b60006020820190508181036000830152611f3d81611f01565b9050919050565b6000606082019050611f596000830186611b73565b611f666020830185611b73565b611f736040830184611ba7565b949350505050565b60008115159050919050565b611f9081611f7b565b8114611f9b57600080fd5b50565b600081519050611fad81611f87565b92915050565b600060208284031215611fc957611fc8611ad0565b5b6000611fd784828501611f9e565b91505092915050565b7f4e487b7100000000000000000000000000000000000000000000000000000000600052601160045260246000fd5b600061201a82611b9d565b915061202583611b9d565b925082820261203381611b9d565b9150828204841483151761204a57612049611fe0565b5b5092915050565b7f496e73756666696369656e74206c697175696469747900000000000000000000600082015250565b6000612087601683611d1b565b915061209282612051565b602082019050919050565b600060208201905081810360008301526120b68161207a565b9050919050565b7f4e487b7100000000000000000000000000000000000000000000000000000000600052601260045260246000fd5b60006120f782611b9d565b915061210283611b9d565b925082612112576121116120bd565b5b828204905092915050565b600061212882611b9d565b915061213383611b9d565b925082820190508082111561214b5761214a611fe0565b5b92915050565b600060a0820190506121666000830188611b73565b6121736020830187611b73565b6121806040830186611ba7565b61218d6060830185611ba7565b61219a6080830184611ba7565b9695505050505050565b60006121af82611b9d565b91506121ba83611b9d565b92508282039050818111156121d2576121d1611fe0565b5b92915050565b60006040820190506121ed6000830185611b73565b6121fa6020830184611ba7565b9392505050565b7f53616d6520746f6b656e00000000000000000000000000000000000000000000600082015250565b6000612237600a83611d1b565b915061224282612201565b602082019050919050565b600060208201905081810360008301526122668161222a565b9050919050565b7f416d6f756e74206d757374206265203e20300000000000000000000000000000600082015250565b60006122a3601283611d1b565b91506122ae8261226d565b602082019050919050565b600060208201905081810360008301526122d281612296565b9050919050565b7f496e73756666696369656e74206f757470757420616d6f756e74000000000000600082015250565b600061230f601a83611d1b565b915061231a826122d9565b602082019050919050565b6000602082019050818103600083015261233e81612302565b9050919050565b600060808201905061235a6000830187611b73565b6123676020830186611b73565b6123746040830185611ba7565b6123816060830184611ba7565b95945050505050565b600081519050919050565b60005b838110156123b3578082015181840152602081019050612398565b60008484015250505050565b6000601f19601f8301169050919050565b60006123db8261238a565b6123e58185611d1b565b93506123f5818560208601612395565b6123fe816123bf565b840191505092915050565b6000602082019050818103600083015261242381846123d0565b905092915050565b7f4e487b7100000000000000000000000000000000000000000000000000000000600052605160045260246000fdfea2646970667358221220aac502ce7c3ab5a9b1f9d6c7fe30c99c807c12b4aa9552c7cdcbd57819283e7464736f6c634300081c0033",
  "linkReferences": {},
  "deployedLinkReferences": {}
}