{
  "_format": "hh-sol-artifact-1",
  "contractName": "SimpleDex",
  "sourceName": "contracts/SimpleDex.sol",
  "abi": [
    {
      "inputs": [],
      "stateMutability": "nonpayable",
      "type": "constructor"
    },
    {
      "inputs": [
        {
          "internalType": "address",
          "name": "owner",
          "type": "address"
        }
      ],
      "name": "OwnableInvalidOwner",
      "type": "error"
    },
    {
      "inputs": [
        {
          "internalType": "address",
          "name": "account",
          "type": "address"
        }
      ],
      "name": "OwnableUnauthorizedAccount",
      "type": "error"
    },
    {
      "anonymous": false,
      "inputs": [
        {
          "indexed": true,
          "internalType": "address",
          "name": "provider",
          "type": "address"
        },
        {
          "indexed": false,
          "internalType": "address",
          "name": "tokenA",
          "type": "address"
        },
        {
          "indexed": false,
          "internalType": "address",
          "name": "tokenB",
          "type": "address"
        },
        {
          "indexed": false,
          "internalType": "uint256",
          "name": "amountA",
          "type": "uint256"
        },
        {
          "indexed": false,
          "internalType": "uint256",
          "name": "amountB",
          "type": "uint256"
        },
        {
          "indexed": false,
          "internalType": "uint256",
          "name": "liquidity",
          "type": "uint256"
        }
      ],
      "name": "LiquidityAdded",
      "type": "event"
    },
    {
      "anonymous": false,
      "inputs": [
        {
          "indexed": true,
          "internalType": "address",
          "name": "previousOwner",
          "type": "address"
        },
        {
          "indexed": true,
          "internalType": "address",
          "name": "newOwner",
          "type": "address"
        }
      ],
      "name": "OwnershipTransferred",
      "type": "event"
    },
    {
      "anonymous": false,
      "inputs": [
        {
          "indexed": true,
          "internalType": "address",
          "name": "sender",
          "type": "address"
        },
        {
          "indexed": false,
          "internalType": "address",
          "name": "tokenIn",
          "type": "address"
        },
        {
          "indexed": false,
          "internalType": "address",
          "name": "tokenOut",
          "type": "address"
        },
        {
          "indexed": false,
          "internalType": "uint256",
          "name": "amountIn",
          "type": "uint256"
        },
        {
          "indexed": false,
          "internalType": "uint256",
          "name": "amountOut",
          "type": "uint256"
        }
      ],
      "name": "Swap",
      "type": "event"
    },
    {
      "inputs": [
        {
          "internalType": "address",
          "name": "tokenA",
          "type": "address"
        },
        {
          "internalType": "address",
          "name": "tokenB",
          "type": "address"
        },
        {
          "internalType": "uint256",
          "name": "amountA",
          "type": "uint256"
        },
        {
          "internalType": "uint256",
          "name": "amountB",
          "type": "uint256"
        }
      ],
      "name": "addLiquidity",
      "outputs": [
        {
          "internalType": "uint256",
          "name": "liquidity",
          "type": "uint256"
        }
      ],
      "stateMutability": "nonpayable",
      "type": "function"
    },
    {
      "inputs": [
        {
          "internalType": "address",
          "name": "tokenA",
          "type": "address"
        },
        {
          "internalType": "address",
          "name": "tokenB",
          "type": "address"
        }
      ],
      "name": "getMyLiquidity",
      "outputs": [
        {
          "internalType": "uint256",
          "name": "liquidity",
          "type": "uint256"
        }
      ],
      "stateMutability": "view",
      "type": "function"
    },
    {
      "inputs": [],
      "name": "owner",
      "outputs": [
        {
          "internalType": "address",
          "name": "",
          "type": "address"
        }
      ],
      "stateMutability": "view",
      "type": "function"
    },
    {
      "inputs": [
        {
          "internalType": "address",
          "name": "",
          "type": "address"
        },
        {
          "internalType": "address",
          "name": "",
          "type": "address"
        }
      ],
      "name": "pools",
      "outputs": [
        {
          "internalType": "uint256",
          "name": "tokenAReserve",
          "type": "uint256"
        },
        {
          "internalType": "uint256",
          "name": "tokenBReserve",
          "type": "uint256"
        },
        {
          "internalType": "uint256",
          "name": "totalLiquidity",
          "type": "uint256"
        }
      ],
      "stateMutability": "view",
      "type": "function"
    },
    {
      "inputs": [],
      "name": "renounceOwnership",
      "outputs": [],
      "stateMutability": "nonpayable",
      "type": "function"
    },
    {
      "inputs": [
        {
          "internalType": "address",
          "name": "tokenA",
          "type": "address"
        },
        {
          "internalType": "address",
          "name": "tokenB",
          "type": "address"
        }
      ],
      "name": "resetPool",
      "outputs": [],
      "stateMutability": "nonpayable",
      "type": "function"
    },
    {
      "inputs": [
        {
          "internalType": "address",
          "name": "tokenIn",
          "type": "address"
        },
        {
          "internalType": "address",
          "name": "tokenOut",
          "type": "address"
        },
        {
          "internalType": "uint256",
          "name": "amountIn",
          "type": "uint256"
        }
      ],
      "name": "swap",
      "outputs": [
        {
          "internalType": "uint256",
          "name": "amountOut",
          "type": "uint256"
        }
      ],
      "stateMutability": "nonpayable",
      "type": "function"
    },
    {
      "inputs": [
        {
          "internalType": "address",
          "name": "newOwner",
          "type": "address"
        }
      ],
      "name": "transferOwnership",
      "outputs": [],
      "stateMutability": "nonpayable",
      "type": "function"
    }
  ],
  "bytecode": "0x608060405234801561001057600080fd5b5033600073ffffffffffffffffffffffffffffffffffffffff168173ffffffffffffffffffffffffffffffffffffffff16036100845760006040517f1e4fbdf700000000000000000000000000000000000000000000000000000000815260040161007b919061019e565b60405180910390fd5b6100938161009960201b60201c565b506101b9565b60008060009054906101000a900473ffffffffffffffffffffffffffffffffffffffff169050816000806101000a81548173ffffffffffffffffffffffffffffffffffffffff021916908373ffffffffffffffffffffffffffffffffffffffff1602179055508173ffffffffffffffffffffffffffffffffffffffff168173ffffffffffffffffffffffffffffffffffffffff167f8be0079c531659141344cd1fd0a4f28419497f9722a3daafe3b4186f6b6457e060405160405180910390a35050565b600073ffffffffffffffffffffffffffffffffffffffff82169050919050565b60006101888261015d565b9050919050565b6101988161017d565b82525050565b60006020820190506101b3600083018461018f565b92915050565b611e6c806101c86000396000f3fe608060405234801561001057600080fd5b50600436106100885760003560e01c8063a94084f51161005b578063a94084f514610103578063cf6c62ea14610133578063df791e5014610163578063f2fde38b1461019357610088565b8063715018a61461008d5780637a11dfbd146100975780638da5cb5b146100b3578063901754d7146100d1575b600080fd5b6100956101af565b005b6100b160048036038101906100ac919061150f565b6101c3565b005b6100bb61048e565b6040516100c8919061155e565b60405180910390f35b6100eb60048036038101906100e6919061150f565b6104b7565b6040516100fa93929190611592565b60405180910390f35b61011d6004803603810190610118919061150f565b6104ee565b60405161012a91906115c9565b60405180910390f35b61014d60048036038101906101489190611610565b6105b5565b60405161015a91906115c9565b60405180910390f35b61017d60048036038101906101789190611677565b610bc8565b60405161018a91906115c9565b60405180910390f35b6101ad60048036038101906101a891906116ca565b611138565b005b6101b76111be565b6101c16000611245565b565b6101cb6111be565b8073ffffffffffffffffffffffffffffffffffffffff168273ffffffffffffffffffffffffffffffffffffffff1603610239576040517f08c379a00000000000000000000000000000000000000000000000000000000081526004016102309061177a565b60405180910390fd5b6000600160008473ffffffffffffffffffffffffffffffffffffffff1673ffffffffffffffffffffffffffffffffffffffff16815260200190815260200160002060008373ffffffffffffffffffffffffffffffffffffffff1673ffffffffffffffffffffffffffffffffffffffff16815260200190815260200160002060020154116102fb576040517f08c379a00000000000000000000000000000000000000000000000000000000081526004016102f2906117e6565b60405180910390fd5b6000600160008473ffffffffffffffffffffffffffffffffffffffff1673ffffffffffffffffffffffffffffffffffffffff16815260200190815260200160002060008373ffffffffffffffffffffffffffffffffffffffff1673ffffffffffffffffffffffffffffffffffffffff168152602001908152602001600020600001819055506000600160008473ffffffffffffffffffffffffffffffffffffffff1673ffffffffffffffffffffffffffffffffffffffff16815260200190815260200160002060008373ffffffffffffffffffffffffffffffffffffffff1673ffffffffffffffffffffffffffffffffffffffff168152602001908152602001600020600101819055506000600160008473ffffffffffffffffffffffffffffffffffffffff1673ffffffffffffffffffffffffffffffffffffffff16815260200190815260200160002060008373ffffffffffffffffffffffffffffffffffffffff1673ffffffffffffffffffffffffffffffffffffffff168152602001908152602001600020600201819055505050565b60008060009054906101000a900473ffffffffffffffffffffffffffffffffffffffff16905090565b6001602052816000526040600020602052806000526040600020600091509150508060000154908060010154908060020154905083565b6000600160008473ffffffffffffffffffffffffffffffffffffffff1673ffffffffffffffffffffffffffffffffffffffff16815260200190815260200160002060008373ffffffffffffffffffffffffffffffffffffffff1673ffffffffffffffffffffffffffffffffffffffff16815260200190815260200160002060030160003373ffffffffffffffffffffffffffffffffffffffff1673ffffffffffffffffffffffffffffffffffffffff16815260200190815260200160002054905092915050565b60006105f56040518060400160405280602081526020017f2d2d2d2d2d2d2d2d2d2d2d2d2d2d2d2d2d2d2d2d2d2d2d2d2d2d2d2d2d2d2d2d815250611309565b8373ffffffffffffffffffffffffffffffffffffffff168573ffffffffffffffffffffffffffffffffffffffff1603610663576040517f08c379a000000000000000000000000000000000000000000000000000000000815260040161065a9061177a565b60405180910390fd5b6000831180156106735750600082115b6106b2576040517f08c379a00000000000000000000000000000000000000000000000000000000081526004016106a990611852565b60405180910390fd5b8373ffffffffffffffffffffffffffffffffffffffff168573ffffffffffffffffffffffffffffffffffffffff1611156106fb5783858095508196505050818380935081945050505b60008590506000859050848273ffffffffffffffffffffffffffffffffffffffff166370a08231336040518263ffffffff1660e01b815260040161073f919061155e565b602060405180830381865afa15801561075c573d6000803e3d6000fd5b505050506040513d601f19601f820116820180604052508101906107809190611887565b10156107c1576040517f08c379a00000000000000000000000000000000000000000000000000000000081526004016107b890611900565b60405180910390fd5b838173ffffffffffffffffffffffffffffffffffffffff166370a08231336040518263ffffffff1660e01b81526004016107fb919061155e565b602060405180830381865afa158015610818573d6000803e3d6000fd5b505050506040513d601f19601f8201168201806040525081019061083c9190611887565b101561087d576040517f08c379a000000000000000000000000000000000000000000000000000000000815260040161087490611900565b60405180910390fd5b8173ffffffffffffffffffffffffffffffffffffffff166323b872dd3330886040518463ffffffff1660e01b81526004016108ba93929190611920565b6020604051808303816000875af11580156108d9573d6000803e3d6000fd5b505050506040513d601f19601f820116820180604052508101906108fd919061198f565b508073ffffffffffffffffffffffffffffffffffffffff166323b872dd3330876040518463ffffffff1660e01b815260040161093b93929190611920565b6020604051808303816000875af115801561095a573d6000803e3d6000fd5b505050506040513d601f19601f8201168201806040525081019061097e919061198f565b506000600160008973ffffffffffffffffffffffffffffffffffffffff1673ffffffffffffffffffffffffffffffffffffffff16815260200190815260200160002060008873ffffffffffffffffffffffffffffffffffffffff1673ffffffffffffffffffffffffffffffffffffffff16815260200190815260200160002090506000816002015403610a6957610a1f8587610a1a91906119eb565b6113a2565b935060008411610a64576040517f08c379a0000000000000000000000000000000000000000000000000000000008152600401610a5b90611a79565b60405180910390fd5b610abe565b60008160000154826002015488610a8091906119eb565b610a8a9190611ac8565b905060008260010154836002015488610aa391906119eb565b610aad9190611ac8565b9050610ab98282611417565b955050505b85816000016000828254610ad29190611af9565b9250508190555084816001016000828254610aed9190611af9565b9250508190555083816002016000828254610b089190611af9565b92505081905550838160030160003373ffffffffffffffffffffffffffffffffffffffff1673ffffffffffffffffffffffffffffffffffffffff1681526020019081526020016000206000828254610b609190611af9565b925050819055503373ffffffffffffffffffffffffffffffffffffffff167f43c967b388d3a4ccad3f7ab80167852e322e5a3fde9893f530252281b2ae8b708989898989604051610bb5959493929190611b2d565b60405180910390a2505050949350505050565b60008273ffffffffffffffffffffffffffffffffffffffff168473ffffffffffffffffffffffffffffffffffffffff1603610c38576040517f08c379a0000000000000000000000000000000000000000000000000000000008152600401610c2f90611bcc565b60405180910390fd5b60008211610c7b576040517f08c379a0000000000000000000000000000000000000000000000000000000008152600401610c7290611c38565b60405180910390fd5b60008373ffffffffffffffffffffffffffffffffffffffff168573ffffffffffffffffffffffffffffffffffffffff16119050600081610cbb5785610cbd565b845b9050600082610ccc5785610cce565b865b90506000600160008473ffffffffffffffffffffffffffffffffffffffff1673ffffffffffffffffffffffffffffffffffffffff16815260200190815260200160002060008373ffffffffffffffffffffffffffffffffffffffff1673ffffffffffffffffffffffffffffffffffffffff16815260200190815260200160002090506000816002015411610d97576040517f08c379a0000000000000000000000000000000000000000000000000000000008152600401610d8e906117e6565b60405180910390fd5b600084610da8578160000154610dae565b81600101545b9050600085610dc1578260010154610dc7565b82600001545b905060006103e589610dd991906119eb565b905060008282610de991906119eb565b90506000826103e886610dfc91906119eb565b610e069190611af9565b90508082610e149190611ac8565b995060008a11610e59576040517f08c379a0000000000000000000000000000000000000000000000000000000008152600401610e5090611ca4565b60405180910390fd5b838a10610e9b576040517f08c379a0000000000000000000000000000000000000000000000000000000008152600401610e9290611a79565b60405180910390fd5b8c73ffffffffffffffffffffffffffffffffffffffff166323b872dd33308e6040518463ffffffff1660e01b8152600401610ed893929190611920565b6020604051808303816000875af1158015610ef7573d6000803e3d6000fd5b505050506040513d601f19601f82011682018060405250810190610f1b919061198f565b5060008c73ffffffffffffffffffffffffffffffffffffffff166370a08231306040518263ffffffff1660e01b8152600401610f57919061155e565b602060405180830381865afa158015610f74573d6000803e3d6000fd5b505050506040513d601f19601f82011682018060405250810190610f989190611887565b9050808b10610fdc576040517f08c379a0000000000000000000000000000000000000000000000000000000008152600401610fd390611900565b60405180910390fd5b8c73ffffffffffffffffffffffffffffffffffffffff1663a9059cbb338d6040518363ffffffff1660e01b8152600401611017929190611cc4565b6020604051808303816000875af1158015611036573d6000803e3d6000fd5b505050506040513d601f19601f8201168201806040525081019061105a919061198f565b50891561109c578a8760000160008282546110759190611ced565b925050819055508b8760010160008282546110909190611af9565b925050819055506110d3565b8b8760000160008282546110b09190611af9565b925050819055508a8760010160008282546110cb9190611ced565b925050819055505b3373ffffffffffffffffffffffffffffffffffffffff167fcd3829a3813dc3cdd188fd3d01dcf3268c16be2fdd2dd21d0665418816e460628f8f8f8f60405161111f9493929190611d21565b60405180910390a2505050505050505050509392505050565b6111406111be565b600073ffffffffffffffffffffffffffffffffffffffff168173ffffffffffffffffffffffffffffffffffffffff16036111b25760006040517f1e4fbdf70000000000000000000000000000000000000000000000000000000081526004016111a9919061155e565b60405180910390fd5b6111bb81611245565b50565b6111c661142e565b73ffffffffffffffffffffffffffffffffffffffff166111e461048e565b73ffffffffffffffffffffffffffffffffffffffff16146112435761120761142e565b6040517f118cdaa700000000000000000000000000000000000000000000000000000000815260040161123a919061155e565b60405180910390fd5b565b60008060009054906101000a900473ffffffffffffffffffffffffffffffffffffffff169050816000806101000a81548173ffffffffffffffffffffffffffffffffffffffff021916908373ffffffffffffffffffffffffffffffffffffffff1602179055508173ffffffffffffffffffffffffffffffffffffffff168173ffffffffffffffffffffffffffffffffffffffff167f8be0079c531659141344cd1fd0a4f28419497f9722a3daafe3b4186f6b6457e060405160405180910390a35050565b61139f8160405160240161131d9190611de5565b6040516020818303038152906040527f41304fac000000000000000000000000000000000000000000000000000000007bffffffffffffffffffffffffffffffffffffffffffffffffffffffff19166020820180517bffffffffffffffffffffffffffffffffffffffffffffffffffffffff8381831617835250505050611436565b50565b60008082036113b45760009050611412565b600060026001846113c59190611af9565b6113cf9190611ac8565b905060008390505b8082101561140c5781905060028283866113f19190611ac8565b6113fb9190611af9565b6114059190611ac8565b91506113d7565b80925050505b919050565b60006114268284108484611450565b905092915050565b600033905090565b61144d8161144561146a61148b565b63ffffffff16565b50565b600061145b84611496565b82841802821890509392505050565b60006a636f6e736f6c652e6c6f679050600080835160208501845afa505050565b6114a2819050919050565b60008115159050919050565b6114aa611e07565b565b600080fd5b600073ffffffffffffffffffffffffffffffffffffffff82169050919050565b60006114dc826114b1565b9050919050565b6114ec816114d1565b81146114f757600080fd5b50565b600081359050611509816114e3565b92915050565b60008060408385031215611526576115256114ac565b5b6000611534858286016114fa565b9250506020611545858286016114fa565b9150509250929050565b611558816114d1565b82525050565b6000602082019050611573600083018461154f565b92915050565b6000819050919050565b61158c81611579565b82525050565b60006060820190506115a76000830186611583565b6115b46020830185611583565b6115c16040830184611583565b949350505050565b60006020820190506115de6000830184611583565b92915050565b6115ed81611579565b81146115f857600080fd5b50565b60008135905061160a816115e4565b92915050565b6000806000806080858703121561162a576116296114ac565b5b6000611638878288016114fa565b9450506020611649878288016114fa565b935050604061165a878288016115fb565b925050606061166b878288016115fb565b91505092959194509250565b6000806000606084860312156116905761168f6114ac565b5b600061169e868287016114fa565b93505060206116af868287016114fa565b92505060406116c0868287016115fb565b9150509250925092565b6000602082840312156116e0576116df6114ac565b5b60006116ee848285016114fa565b91505092915050565b600082825260208201905092915050565b7f546f6b656e4120616e6420546f6b656e422063616e6e6f74206265207468652060008201527f73616d6500000000000000000000000000000000000000000000000000000000602082015250565b60006117646024836116f7565b915061176f82611708565b604082019050919050565b6000602082019050818103600083015261179381611757565b9050919050565b7f506f6f6c206e6f74206578697374730000000000000000000000000000000000600082015250565b60006117d0600f836116f7565b91506117db8261179a565b602082019050919050565b600060208201905081810360008301526117ff816117c3565b9050919050565b7f416d6f756e7473206d7573742062652067726561746572207468616e20300000600082015250565b600061183c601e836116f7565b915061184782611806565b602082019050919050565b6000602082019050818103600083015261186b8161182f565b9050919050565b600081519050611881816115e4565b92915050565b60006020828403121561189d5761189c6114ac565b5b60006118ab84828501611872565b91505092915050565b7f496e73756666696369656e742062616c616e6365000000000000000000000000600082015250565b60006118ea6014836116f7565b91506118f5826118b4565b602082019050919050565b60006020820190508181036000830152611919816118dd565b9050919050565b6000606082019050611935600083018661154f565b611942602083018561154f565b61194f6040830184611583565b949350505050565b60008115159050919050565b61196c81611957565b811461197757600080fd5b50565b60008151905061198981611963565b92915050565b6000602082840312156119a5576119a46114ac565b5b60006119b38482850161197a565b91505092915050565b7f4e487b7100000000000000000000000000000000000000000000000000000000600052601160045260246000fd5b60006119f682611579565b9150611a0183611579565b9250828202611a0f81611579565b91508282048414831517611a2657611a256119bc565b5b5092915050565b7f496e73756666696369656e74206c697175696469747900000000000000000000600082015250565b6000611a636016836116f7565b9150611a6e82611a2d565b602082019050919050565b60006020820190508181036000830152611a9281611a56565b9050919050565b7f4e487b7100000000000000000000000000000000000000000000000000000000600052601260045260246000fd5b6000611ad382611579565b9150611ade83611579565b925082611aee57611aed611a99565b5b828204905092915050565b6000611b0482611579565b9150611b0f83611579565b9250828201905080821115611b2757611b266119bc565b5b92915050565b600060a082019050611b42600083018861154f565b611b4f602083018761154f565b611b5c6040830186611583565b611b696060830185611583565b611b766080830184611583565b9695505050505050565b7f53616d6520746f6b656e00000000000000000000000000000000000000000000600082015250565b6000611bb6600a836116f7565b9150611bc182611b80565b602082019050919050565b60006020820190508181036000830152611be581611ba9565b9050919050565b7f416d6f756e74206d757374206265203e20300000000000000000000000000000600082015250565b6000611c226012836116f7565b9150611c2d82611bec565b602082019050919050565b60006020820190508181036000830152611c5181611c15565b9050919050565b7f496e73756666696369656e74206f757470757420616d6f756e74000000000000600082015250565b6000611c8e601a836116f7565b9150611c9982611c58565b602082019050919050565b60006020820190508181036000830152611cbd81611c81565b9050919050565b6000604082019050611cd9600083018561154f565b611ce66020830184611583565b9392505050565b6000611cf882611579565b9150611d0383611579565b9250828203905081811115611d1b57611d1a6119bc565b5b92915050565b6000608082019050611d36600083018761154f565b611d43602083018661154f565b611d506040830185611583565b611d5d6060830184611583565b95945050505050565b600081519050919050565b60005b83811015611d8f578082015181840152602081019050611d74565b60008484015250505050565b6000601f19601f8301169050919050565b6000611db782611d66565b611dc181856116f7565b9350611dd1818560208601611d71565b611dda81611d9b565b840191505092915050565b60006020820190508181036000830152611dff8184611dac565b905092915050565b7f4e487b7100000000000000000000000000000000000000000000000000000000600052605160045260246000fdfea2646970667358221220914c71811ab953b78bb85b408c57a713c4d73f78cfc576b306d0347615f5c0d964736f6c634300081c0033",
  "linkReferences": {},
  "deployedLinkReferences": {}
}