{
  "_format": "hh-sol-artifact-1",
  "contractName": "SimpleDexV3",
  "sourceName": "contracts/SimpleDexV3.sol",
  "abi": [
    {
      "inputs": [
        {
          "internalType": "address",
          "name": "owner",
          "type": "address"
        }
      ],
      "name": "OwnableInvalidOwner",
      "type": "error"
    },
    {
      "inputs": [
        {
          "internalType": "address",
          "name": "account",
          "type": "address"
        }
      ],
      "name": "OwnableUnauthorizedAccount",
      "type": "error"
    },
    {
      "anonymous": false,
      "inputs": [
        {
          "indexed": true,
          "internalType": "address",
          "name": "provider",
          "type": "address"
        },
        {
          "indexed": false,
          "internalType": "address",
          "name": "tokenA",
          "type": "address"
        },
        {
          "indexed": false,
          "internalType": "address",
          "name": "tokenB",
          "type": "address"
        },
        {
          "indexed": false,
          "internalType": "uint256",
          "name": "amountA",
          "type": "uint256"
        },
        {
          "indexed": false,
          "internalType": "uint256",
          "name": "amountB",
          "type": "uint256"
        },
        {
          "indexed": false,
          "internalType": "uint256",
          "name": "liquidity",
          "type": "uint256"
        }
      ],
      "name": "LiquidityAdded",
      "type": "event"
    },
    {
      "anonymous": false,
      "inputs": [
        {
          "indexed": true,
          "internalType": "address",
          "name": "provider",
          "type": "address"
        },
        {
          "indexed": false,
          "internalType": "address",
          "name": "tokenA",
          "type": "address"
        },
        {
          "indexed": false,
          "internalType": "address",
          "name": "tokenB",
          "type": "address"
        },
        {
          "indexed": false,
          "internalType": "uint256",
          "name": "liquidity",
          "type": "uint256"
        }
      ],
      "name": "LiquidityRemoved",
      "type": "event"
    },
    {
      "anonymous": false,
      "inputs": [
        {
          "indexed": true,
          "internalType": "address",
          "name": "previousOwner",
          "type": "address"
        },
        {
          "indexed": true,
          "internalType": "address",
          "name": "newOwner",
          "type": "address"
        }
      ],
      "name": "OwnershipTransferred",
      "type": "event"
    },
    {
      "anonymous": false,
      "inputs": [
        {
          "indexed": true,
          "internalType": "address",
          "name": "sender",
          "type": "address"
        },
        {
          "indexed": false,
          "internalType": "address",
          "name": "tokenIn",
          "type": "address"
        },
        {
          "indexed": false,
          "internalType": "address",
          "name": "tokenOut",
          "type": "address"
        },
        {
          "indexed": false,
          "internalType": "uint256",
          "name": "amountIn",
          "type": "uint256"
        },
        {
          "indexed": false,
          "internalType": "uint256",
          "name": "amountOut",
          "type": "uint256"
        }
      ],
      "name": "Swap",
      "type": "event"
    },
    {
      "inputs": [
        {
          "internalType": "address",
          "name": "tokenA",
          "type": "address"
        },
        {
          "internalType": "address",
          "name": "tokenB",
          "type": "address"
        },
        {
          "internalType": "uint256",
          "name": "amountA",
          "type": "uint256"
        },
        {
          "internalType": "uint256",
          "name": "amountB",
          "type": "uint256"
        }
      ],
      "name": "addLiquidity",
      "outputs": [
        {
          "internalType": "uint256",
          "name": "liquidity",
          "type": "uint256"
        }
      ],
      "stateMutability": "nonpayable",
      "type": "function"
    },
    {
      "inputs": [
        {
          "internalType": "address",
          "name": "tokenA",
          "type": "address"
        },
        {
          "internalType": "address",
          "name": "tokenB",
          "type": "address"
        }
      ],
      "name": "getMyLiquidity",
      "outputs": [
        {
          "internalType": "uint256",
          "name": "liquidity",
          "type": "uint256"
        }
      ],
      "stateMutability": "view",
      "type": "function"
    },
    {
      "inputs": [],
      "name": "owner",
      "outputs": [
        {
          "internalType": "address",
          "name": "",
          "type": "address"
        }
      ],
      "stateMutability": "view",
      "type": "function"
    },
    {
      "inputs": [
        {
          "internalType": "address",
          "name": "",
          "type": "address"
        },
        {
          "internalType": "address",
          "name": "",
          "type": "address"
        }
      ],
      "name": "pools",
      "outputs": [
        {
          "internalType": "uint256",
          "name": "tokenAReserve",
          "type": "uint256"
        },
        {
          "internalType": "uint256",
          "name": "tokenBReserve",
          "type": "uint256"
        },
        {
          "internalType": "uint256",
          "name": "totalLiquidity",
          "type": "uint256"
        }
      ],
      "stateMutability": "view",
      "type": "function"
    },
    {
      "inputs": [
        {
          "internalType": "address",
          "name": "tokenA",
          "type": "address"
        },
        {
          "internalType": "address",
          "name": "tokenB",
          "type": "address"
        },
        {
          "internalType": "uint256",
          "name": "liquidity",
          "type": "uint256"
        }
      ],
      "name": "removeLiquidity",
      "outputs": [],
      "stateMutability": "nonpayable",
      "type": "function"
    },
    {
      "inputs": [],
      "name": "renounceOwnership",
      "outputs": [],
      "stateMutability": "nonpayable",
      "type": "function"
    },
    {
      "inputs": [
        {
          "internalType": "address",
          "name": "tokenA",
          "type": "address"
        },
        {
          "internalType": "address",
          "name": "tokenB",
          "type": "address"
        }
      ],
      "name": "resetPool",
      "outputs": [],
      "stateMutability": "nonpayable",
      "type": "function"
    },
    {
      "inputs": [
        {
          "internalType": "address",
          "name": "tokenIn",
          "type": "address"
        },
        {
          "internalType": "address",
          "name": "tokenOut",
          "type": "address"
        },
        {
          "internalType": "uint256",
          "name": "amountIn",
          "type": "uint256"
        }
      ],
      "name": "swap",
      "outputs": [
        {
          "internalType": "uint256",
          "name": "amountOut",
          "type": "uint256"
        }
      ],
      "stateMutability": "nonpayable",
      "type": "function"
    },
    {
      "inputs": [
        {
          "internalType": "address",
          "name": "newOwner",
          "type": "address"
        }
      ],
      "name": "transferOwnership",
      "outputs": [],
      "stateMutability": "nonpayable",
      "type": "function"
    }
  ],
  "bytecode": "0x608060405234801561001057600080fd5b5033600073ffffffffffffffffffffffffffffffffffffffff168173ffffffffffffffffffffffffffffffffffffffff16036100845760006040517f1e4fbdf700000000000000000000000000000000000000000000000000000000815260040161007b919061019e565b60405180910390fd5b6100938161009960201b60201c565b506101b9565b60008060009054906101000a900473ffffffffffffffffffffffffffffffffffffffff169050816000806101000a81548173ffffffffffffffffffffffffffffffffffffffff021916908373ffffffffffffffffffffffffffffffffffffffff1602179055508173ffffffffffffffffffffffffffffffffffffffff168173ffffffffffffffffffffffffffffffffffffffff167f8be0079c531659141344cd1fd0a4f28419497f9722a3daafe3b4186f6b6457e060405160405180910390a35050565b600073ffffffffffffffffffffffffffffffffffffffff82169050919050565b60006101888261015d565b9050919050565b6101988161017d565b82525050565b60006020820190506101b3600083018461018f565b92915050565b612543806101c86000396000f3fe608060405234801561001057600080fd5b50600436106100935760003560e01c8063a94084f511610066578063a94084f51461010e578063cf6c62ea1461013e578063d752fab21461016e578063df791e501461018a578063f2fde38b146101ba57610093565b8063715018a6146100985780637a11dfbd146100a25780638da5cb5b146100be578063901754d7146100dc575b600080fd5b6100a06101d6565b005b6100bc60048036038101906100b79190611be6565b6101ea565b005b6100c66104b5565b6040516100d39190611c35565b60405180910390f35b6100f660048036038101906100f19190611be6565b6104de565b60405161010593929190611c69565b60405180910390f35b61012860048036038101906101239190611be6565b610515565b6040516101359190611ca0565b60405180910390f35b61015860048036038101906101539190611ce7565b6105dc565b6040516101659190611ca0565b60405180910390f35b61018860048036038101906101839190611d4e565b610bef565b005b6101a4600480360381019061019f9190611d4e565b61129f565b6040516101b19190611ca0565b60405180910390f35b6101d460048036038101906101cf9190611da1565b61180f565b005b6101de611895565b6101e8600061191c565b565b6101f2611895565b8073ffffffffffffffffffffffffffffffffffffffff168273ffffffffffffffffffffffffffffffffffffffff1603610260576040517f08c379a000000000000000000000000000000000000000000000000000000000815260040161025790611e51565b60405180910390fd5b6000600160008473ffffffffffffffffffffffffffffffffffffffff1673ffffffffffffffffffffffffffffffffffffffff16815260200190815260200160002060008373ffffffffffffffffffffffffffffffffffffffff1673ffffffffffffffffffffffffffffffffffffffff1681526020019081526020016000206002015411610322576040517f08c379a000000000000000000000000000000000000000000000000000000000815260040161031990611ebd565b60405180910390fd5b6000600160008473ffffffffffffffffffffffffffffffffffffffff1673ffffffffffffffffffffffffffffffffffffffff16815260200190815260200160002060008373ffffffffffffffffffffffffffffffffffffffff1673ffffffffffffffffffffffffffffffffffffffff168152602001908152602001600020600001819055506000600160008473ffffffffffffffffffffffffffffffffffffffff1673ffffffffffffffffffffffffffffffffffffffff16815260200190815260200160002060008373ffffffffffffffffffffffffffffffffffffffff1673ffffffffffffffffffffffffffffffffffffffff168152602001908152602001600020600101819055506000600160008473ffffffffffffffffffffffffffffffffffffffff1673ffffffffffffffffffffffffffffffffffffffff16815260200190815260200160002060008373ffffffffffffffffffffffffffffffffffffffff1673ffffffffffffffffffffffffffffffffffffffff168152602001908152602001600020600201819055505050565b60008060009054906101000a900473ffffffffffffffffffffffffffffffffffffffff16905090565b6001602052816000526040600020602052806000526040600020600091509150508060000154908060010154908060020154905083565b6000600160008473ffffffffffffffffffffffffffffffffffffffff1673ffffffffffffffffffffffffffffffffffffffff16815260200190815260200160002060008373ffffffffffffffffffffffffffffffffffffffff1673ffffffffffffffffffffffffffffffffffffffff16815260200190815260200160002060030160003373ffffffffffffffffffffffffffffffffffffffff1673ffffffffffffffffffffffffffffffffffffffff16815260200190815260200160002054905092915050565b600061061c6040518060400160405280602081526020017f2d2d2d2d2d2d2d2d2d2d2d2d2d2d2d2d2d2d2d2d2d2d2d2d2d2d2d2d2d2d2d2d8152506119e0565b8373ffffffffffffffffffffffffffffffffffffffff168573ffffffffffffffffffffffffffffffffffffffff160361068a576040517f08c379a000000000000000000000000000000000000000000000000000000000815260040161068190611e51565b60405180910390fd5b60008311801561069a5750600082115b6106d9576040517f08c379a00000000000000000000000000000000000000000000000000000000081526004016106d090611f29565b60405180910390fd5b8373ffffffffffffffffffffffffffffffffffffffff168573ffffffffffffffffffffffffffffffffffffffff1611156107225783858095508196505050818380935081945050505b60008590506000859050848273ffffffffffffffffffffffffffffffffffffffff166370a08231336040518263ffffffff1660e01b81526004016107669190611c35565b602060405180830381865afa158015610783573d6000803e3d6000fd5b505050506040513d601f19601f820116820180604052508101906107a79190611f5e565b10156107e8576040517f08c379a00000000000000000000000000000000000000000000000000000000081526004016107df90611fd7565b60405180910390fd5b838173ffffffffffffffffffffffffffffffffffffffff166370a08231336040518263ffffffff1660e01b81526004016108229190611c35565b602060405180830381865afa15801561083f573d6000803e3d6000fd5b505050506040513d601f19601f820116820180604052508101906108639190611f5e565b10156108a4576040517f08c379a000000000000000000000000000000000000000000000000000000000815260040161089b90611fd7565b60405180910390fd5b8173ffffffffffffffffffffffffffffffffffffffff166323b872dd3330886040518463ffffffff1660e01b81526004016108e193929190611ff7565b6020604051808303816000875af1158015610900573d6000803e3d6000fd5b505050506040513d601f19601f820116820180604052508101906109249190612066565b508073ffffffffffffffffffffffffffffffffffffffff166323b872dd3330876040518463ffffffff1660e01b815260040161096293929190611ff7565b6020604051808303816000875af1158015610981573d6000803e3d6000fd5b505050506040513d601f19601f820116820180604052508101906109a59190612066565b506000600160008973ffffffffffffffffffffffffffffffffffffffff1673ffffffffffffffffffffffffffffffffffffffff16815260200190815260200160002060008873ffffffffffffffffffffffffffffffffffffffff1673ffffffffffffffffffffffffffffffffffffffff16815260200190815260200160002090506000816002015403610a9057610a468587610a4191906120c2565b611a79565b935060008411610a8b576040517f08c379a0000000000000000000000000000000000000000000000000000000008152600401610a8290612150565b60405180910390fd5b610ae5565b60008160000154826002015488610aa791906120c2565b610ab1919061219f565b905060008260010154836002015488610aca91906120c2565b610ad4919061219f565b9050610ae08282611aee565b955050505b85816000016000828254610af991906121d0565b9250508190555084816001016000828254610b1491906121d0565b9250508190555083816002016000828254610b2f91906121d0565b92505081905550838160030160003373ffffffffffffffffffffffffffffffffffffffff1673ffffffffffffffffffffffffffffffffffffffff1681526020019081526020016000206000828254610b8791906121d0565b925050819055503373ffffffffffffffffffffffffffffffffffffffff167f43c967b388d3a4ccad3f7ab80167852e322e5a3fde9893f530252281b2ae8b708989898989604051610bdc959493929190612204565b60405180910390a2505050949350505050565b80600160008573ffffffffffffffffffffffffffffffffffffffff1673ffffffffffffffffffffffffffffffffffffffff16815260200190815260200160002060008473ffffffffffffffffffffffffffffffffffffffff1673ffffffffffffffffffffffffffffffffffffffff16815260200190815260200160002060030160003373ffffffffffffffffffffffffffffffffffffffff1673ffffffffffffffffffffffffffffffffffffffff168152602001908152602001600020541015610cee576040517f08c379a0000000000000000000000000000000000000000000000000000000008152600401610ce590612150565b60405180910390fd5b6000600160008573ffffffffffffffffffffffffffffffffffffffff1673ffffffffffffffffffffffffffffffffffffffff16815260200190815260200160002060008473ffffffffffffffffffffffffffffffffffffffff1673ffffffffffffffffffffffffffffffffffffffff1681526020019081526020016000206000015490506000600160008673ffffffffffffffffffffffffffffffffffffffff1673ffffffffffffffffffffffffffffffffffffffff16815260200190815260200160002060008573ffffffffffffffffffffffffffffffffffffffff1673ffffffffffffffffffffffffffffffffffffffff1681526020019081526020016000206001015490506000600160008773ffffffffffffffffffffffffffffffffffffffff1673ffffffffffffffffffffffffffffffffffffffff16815260200190815260200160002060008673ffffffffffffffffffffffffffffffffffffffff1673ffffffffffffffffffffffffffffffffffffffff1681526020019081526020016000206002015490506000818486610e8991906120c2565b610e93919061219f565b90506000828487610ea491906120c2565b610eae919061219f565b905085600160008a73ffffffffffffffffffffffffffffffffffffffff1673ffffffffffffffffffffffffffffffffffffffff16815260200190815260200160002060008973ffffffffffffffffffffffffffffffffffffffff1673ffffffffffffffffffffffffffffffffffffffff16815260200190815260200160002060030160003373ffffffffffffffffffffffffffffffffffffffff1673ffffffffffffffffffffffffffffffffffffffff1681526020019081526020016000206000828254610f7c9190612257565b9250508190555085600160008a73ffffffffffffffffffffffffffffffffffffffff1673ffffffffffffffffffffffffffffffffffffffff16815260200190815260200160002060008973ffffffffffffffffffffffffffffffffffffffff1673ffffffffffffffffffffffffffffffffffffffff16815260200190815260200160002060020160008282546110129190612257565b9250508190555081600160008a73ffffffffffffffffffffffffffffffffffffffff1673ffffffffffffffffffffffffffffffffffffffff16815260200190815260200160002060008973ffffffffffffffffffffffffffffffffffffffff1673ffffffffffffffffffffffffffffffffffffffff16815260200190815260200160002060000160008282546110a89190612257565b9250508190555080600160008a73ffffffffffffffffffffffffffffffffffffffff1673ffffffffffffffffffffffffffffffffffffffff16815260200190815260200160002060008973ffffffffffffffffffffffffffffffffffffffff1673ffffffffffffffffffffffffffffffffffffffff168152602001908152602001600020600101600082825461113e9190612257565b925050819055508773ffffffffffffffffffffffffffffffffffffffff1663a9059cbb33846040518363ffffffff1660e01b815260040161118092919061228b565b6020604051808303816000875af115801561119f573d6000803e3d6000fd5b505050506040513d601f19601f820116820180604052508101906111c39190612066565b508673ffffffffffffffffffffffffffffffffffffffff1663a9059cbb33836040518363ffffffff1660e01b81526004016111ff92919061228b565b6020604051808303816000875af115801561121e573d6000803e3d6000fd5b505050506040513d601f19601f820116820180604052508101906112429190612066565b503373ffffffffffffffffffffffffffffffffffffffff167f94f1f3125c0ce3e87e73be7798f37f42710fa4c304b51ee82698965e200afa7389898960405161128d93929190611ff7565b60405180910390a25050505050505050565b60008273ffffffffffffffffffffffffffffffffffffffff168473ffffffffffffffffffffffffffffffffffffffff160361130f576040517f08c379a000000000000000000000000000000000000000000000000000000000815260040161130690612300565b60405180910390fd5b60008211611352576040517f08c379a00000000000000000000000000000000000000000000000000000000081526004016113499061236c565b60405180910390fd5b60008373ffffffffffffffffffffffffffffffffffffffff168573ffffffffffffffffffffffffffffffffffffffff161190506000816113925785611394565b845b90506000826113a357856113a5565b865b90506000600160008473ffffffffffffffffffffffffffffffffffffffff1673ffffffffffffffffffffffffffffffffffffffff16815260200190815260200160002060008373ffffffffffffffffffffffffffffffffffffffff1673ffffffffffffffffffffffffffffffffffffffff1681526020019081526020016000209050600081600201541161146e576040517f08c379a000000000000000000000000000000000000000000000000000000000815260040161146590611ebd565b60405180910390fd5b60008461147f578160000154611485565b81600101545b905060008561149857826001015461149e565b82600001545b905060006103e5896114b091906120c2565b9050600082826114c091906120c2565b90506000826103e8866114d391906120c2565b6114dd91906121d0565b905080826114eb919061219f565b995060008a11611530576040517f08c379a0000000000000000000000000000000000000000000000000000000008152600401611527906123d8565b60405180910390fd5b838a10611572576040517f08c379a000000000000000000000000000000000000000000000000000000000815260040161156990612150565b60405180910390fd5b8c73ffffffffffffffffffffffffffffffffffffffff166323b872dd33308e6040518463ffffffff1660e01b81526004016115af93929190611ff7565b6020604051808303816000875af11580156115ce573d6000803e3d6000fd5b505050506040513d601f19601f820116820180604052508101906115f29190612066565b5060008c73ffffffffffffffffffffffffffffffffffffffff166370a08231306040518263ffffffff1660e01b815260040161162e9190611c35565b602060405180830381865afa15801561164b573d6000803e3d6000fd5b505050506040513d601f19601f8201168201806040525081019061166f9190611f5e565b9050808b106116b3576040517f08c379a00000000000000000000000000000000000000000000000000000000081526004016116aa90611fd7565b60405180910390fd5b8c73ffffffffffffffffffffffffffffffffffffffff1663a9059cbb338d6040518363ffffffff1660e01b81526004016116ee92919061228b565b6020604051808303816000875af115801561170d573d6000803e3d6000fd5b505050506040513d601f19601f820116820180604052508101906117319190612066565b508915611773578a87600001600082825461174c9190612257565b925050819055508b87600101600082825461176791906121d0565b925050819055506117aa565b8b87600001600082825461178791906121d0565b925050819055508a8760010160008282546117a29190612257565b925050819055505b3373ffffffffffffffffffffffffffffffffffffffff167fcd3829a3813dc3cdd188fd3d01dcf3268c16be2fdd2dd21d0665418816e460628f8f8f8f6040516117f694939291906123f8565b60405180910390a2505050505050505050509392505050565b611817611895565b600073ffffffffffffffffffffffffffffffffffffffff168173ffffffffffffffffffffffffffffffffffffffff16036118895760006040517f1e4fbdf70000000000000000000000000000000000000000000000000000000081526004016118809190611c35565b60405180910390fd5b6118928161191c565b50565b61189d611b05565b73ffffffffffffffffffffffffffffffffffffffff166118bb6104b5565b73ffffffffffffffffffffffffffffffffffffffff161461191a576118de611b05565b6040517f118cdaa70000000000000000000000000000000000000000000000000000000081526004016119119190611c35565b60405180910390fd5b565b60008060009054906101000a900473ffffffffffffffffffffffffffffffffffffffff169050816000806101000a81548173ffffffffffffffffffffffffffffffffffffffff021916908373ffffffffffffffffffffffffffffffffffffffff1602179055508173ffffffffffffffffffffffffffffffffffffffff168173ffffffffffffffffffffffffffffffffffffffff167f8be0079c531659141344cd1fd0a4f28419497f9722a3daafe3b4186f6b6457e060405160405180910390a35050565b611a76816040516024016119f491906124bc565b6040516020818303038152906040527f41304fac000000000000000000000000000000000000000000000000000000007bffffffffffffffffffffffffffffffffffffffffffffffffffffffff19166020820180517bffffffffffffffffffffffffffffffffffffffffffffffffffffffff8381831617835250505050611b0d565b50565b6000808203611a8b5760009050611ae9565b60006002600184611a9c91906121d0565b611aa6919061219f565b905060008390505b80821015611ae3578190506002828386611ac8919061219f565b611ad291906121d0565b611adc919061219f565b9150611aae565b80925050505b919050565b6000611afd8284108484611b27565b905092915050565b600033905090565b611b2481611b1c611b41611b62565b63ffffffff16565b50565b6000611b3284611b6d565b82841802821890509392505050565b60006a636f6e736f6c652e6c6f679050600080835160208501845afa505050565b611b79819050919050565b60008115159050919050565b611b816124de565b565b600080fd5b600073ffffffffffffffffffffffffffffffffffffffff82169050919050565b6000611bb382611b88565b9050919050565b611bc381611ba8565b8114611bce57600080fd5b50565b600081359050611be081611bba565b92915050565b60008060408385031215611bfd57611bfc611b83565b5b6000611c0b85828601611bd1565b9250506020611c1c85828601611bd1565b9150509250929050565b611c2f81611ba8565b82525050565b6000602082019050611c4a6000830184611c26565b92915050565b6000819050919050565b611c6381611c50565b82525050565b6000606082019050611c7e6000830186611c5a565b611c8b6020830185611c5a565b611c986040830184611c5a565b949350505050565b6000602082019050611cb56000830184611c5a565b92915050565b611cc481611c50565b8114611ccf57600080fd5b50565b600081359050611ce181611cbb565b92915050565b60008060008060808587031215611d0157611d00611b83565b5b6000611d0f87828801611bd1565b9450506020611d2087828801611bd1565b9350506040611d3187828801611cd2565b9250506060611d4287828801611cd2565b91505092959194509250565b600080600060608486031215611d6757611d66611b83565b5b6000611d7586828701611bd1565b9350506020611d8686828701611bd1565b9250506040611d9786828701611cd2565b9150509250925092565b600060208284031215611db757611db6611b83565b5b6000611dc584828501611bd1565b91505092915050565b600082825260208201905092915050565b7f546f6b656e4120616e6420546f6b656e422063616e6e6f74206265207468652060008201527f73616d6500000000000000000000000000000000000000000000000000000000602082015250565b6000611e3b602483611dce565b9150611e4682611ddf565b604082019050919050565b60006020820190508181036000830152611e6a81611e2e565b9050919050565b7f506f6f6c206e6f74206578697374730000000000000000000000000000000000600082015250565b6000611ea7600f83611dce565b9150611eb282611e71565b602082019050919050565b60006020820190508181036000830152611ed681611e9a565b9050919050565b7f416d6f756e7473206d7573742062652067726561746572207468616e20300000600082015250565b6000611f13601e83611dce565b9150611f1e82611edd565b602082019050919050565b60006020820190508181036000830152611f4281611f06565b9050919050565b600081519050611f5881611cbb565b92915050565b600060208284031215611f7457611f73611b83565b5b6000611f8284828501611f49565b91505092915050565b7f496e73756666696369656e742062616c616e6365000000000000000000000000600082015250565b6000611fc1601483611dce565b9150611fcc82611f8b565b602082019050919050565b60006020820190508181036000830152611ff081611fb4565b9050919050565b600060608201905061200c6000830186611c26565b6120196020830185611c26565b6120266040830184611c5a565b949350505050565b60008115159050919050565b6120438161202e565b811461204e57600080fd5b50565b6000815190506120608161203a565b92915050565b60006020828403121561207c5761207b611b83565b5b600061208a84828501612051565b91505092915050565b7f4e487b7100000000000000000000000000000000000000000000000000000000600052601160045260246000fd5b60006120cd82611c50565b91506120d883611c50565b92508282026120e681611c50565b915082820484148315176120fd576120fc612093565b5b5092915050565b7f496e73756666696369656e74206c697175696469747900000000000000000000600082015250565b600061213a601683611dce565b915061214582612104565b602082019050919050565b600060208201905081810360008301526121698161212d565b9050919050565b7f4e487b7100000000000000000000000000000000000000000000000000000000600052601260045260246000fd5b60006121aa82611c50565b91506121b583611c50565b9250826121c5576121c4612170565b5b828204905092915050565b60006121db82611c50565b91506121e683611c50565b92508282019050808211156121fe576121fd612093565b5b92915050565b600060a0820190506122196000830188611c26565b6122266020830187611c26565b6122336040830186611c5a565b6122406060830185611c5a565b61224d6080830184611c5a565b9695505050505050565b600061226282611c50565b915061226d83611c50565b925082820390508181111561228557612284612093565b5b92915050565b60006040820190506122a06000830185611c26565b6122ad6020830184611c5a565b9392505050565b7f53616d6520746f6b656e00000000000000000000000000000000000000000000600082015250565b60006122ea600a83611dce565b91506122f5826122b4565b602082019050919050565b60006020820190508181036000830152612319816122dd565b9050919050565b7f416d6f756e74206d757374206265203e20300000000000000000000000000000600082015250565b6000612356601283611dce565b915061236182612320565b602082019050919050565b6000602082019050818103600083015261238581612349565b9050919050565b7f496e73756666696369656e74206f757470757420616d6f756e74000000000000600082015250565b60006123c2601a83611dce565b91506123cd8261238c565b602082019050919050565b600060208201905081810360008301526123f1816123b5565b9050919050565b600060808201905061240d6000830187611c26565b61241a6020830186611c26565b6124276040830185611c5a565b6124346060830184611c5a565b95945050505050565b600081519050919050565b60005b8381101561246657808201518184015260208101905061244b565b60008484015250505050565b6000601f19601f8301169050919050565b600061248e8261243d565b6124988185611dce565b93506124a8818560208601612448565b6124b181612472565b840191505092915050565b600060208201905081810360008301526124d68184612483565b905092915050565b7f4e487b7100000000000000000000000000000000000000000000000000000000600052605160045260246000fdfea2646970667358221220237cf0e94bd0ffd5f1195748d2441c5edcf06cfd021772a5f4686ada53d7903d64736f6c634300081c0033",
  "linkReferences": {},
  "deployedLinkReferences": {}
}