{
  "_format": "hh-sol-artifact-1",
  "contractName": "JumpRateModel",
  "sourceName": "contracts/JumpRateModel.sol",
  "abi": [
    {
      "inputs": [
        {
          "internalType": "uint256",
          "name": "baseRatePerYear",
          "type": "uint256"
        },
        {
          "internalType": "uint256",
          "name": "multiplierPerYear",
          "type": "uint256"
        },
        {
          "internalType": "uint256",
          "name": "jumpMultiplierPerYear",
          "type": "uint256"
        },
        {
          "internalType": "uint256",
          "name": "kink_",
          "type": "uint256"
        }
      ],
      "stateMutability": "nonpayable",
      "type": "constructor"
    },
    {
      "inputs": [],
      "name": "baseRatePerBlock",
      "outputs": [
        {
          "internalType": "uint256",
          "name": "",
          "type": "uint256"
        }
      ],
      "stateMutability": "view",
      "type": "function"
    },
    {
      "inputs": [],
      "name": "blocksPerYear",
      "outputs": [
        {
          "internalType": "uint256",
          "name": "",
          "type": "uint256"
        }
      ],
      "stateMutability": "view",
      "type": "function"
    },
    {
      "inputs": [
        {
          "internalType": "uint256",
          "name": "cash",
          "type": "uint256"
        },
        {
          "internalType": "uint256",
          "name": "borrows",
          "type": "uint256"
        },
        {
          "internalType": "uint256",
          "name": "reserves",
          "type": "uint256"
        }
      ],
      "name": "getBorrowRate",
      "outputs": [
        {
          "internalType": "uint256",
          "name": "",
          "type": "uint256"
        }
      ],
      "stateMutability": "view",
      "type": "function"
    },
    {
      "inputs": [
        {
          "internalType": "uint256",
          "name": "cash",
          "type": "uint256"
        },
        {
          "internalType": "uint256",
          "name": "borrows",
          "type": "uint256"
        },
        {
          "internalType": "uint256",
          "name": "reserves",
          "type": "uint256"
        },
        {
          "internalType": "uint256",
          "name": "reserveFactorMantissa",
          "type": "uint256"
        }
      ],
      "name": "getSupplyRate",
      "outputs": [
        {
          "internalType": "uint256",
          "name": "",
          "type": "uint256"
        }
      ],
      "stateMutability": "view",
      "type": "function"
    },
    {
      "inputs": [],
      "name": "isInterestRateModel",
      "outputs": [
        {
          "internalType": "bool",
          "name": "",
          "type": "bool"
        }
      ],
      "stateMutability": "view",
      "type": "function"
    },
    {
      "inputs": [],
      "name": "jumpMultiplierPerBlock",
      "outputs": [
        {
          "internalType": "uint256",
          "name": "",
          "type": "uint256"
        }
      ],
      "stateMutability": "view",
      "type": "function"
    },
    {
      "inputs": [],
      "name": "kink",
      "outputs": [
        {
          "internalType": "uint256",
          "name": "",
          "type": "uint256"
        }
      ],
      "stateMutability": "view",
      "type": "function"
    },
    {
      "inputs": [],
      "name": "multiplierPerBlock",
      "outputs": [
        {
          "internalType": "uint256",
          "name": "",
          "type": "uint256"
        }
      ],
      "stateMutability": "view",
      "type": "function"
    },
    {
      "inputs": [
        {
          "internalType": "uint256",
          "name": "cash",
          "type": "uint256"
        },
        {
          "internalType": "uint256",
          "name": "borrows",
          "type": "uint256"
        },
        {
          "internalType": "uint256",
          "name": "reserves",
          "type": "uint256"
        }
      ],
      "name": "utilizationRate",
      "outputs": [
        {
          "internalType": "uint256",
          "name": "",
          "type": "uint256"
        }
      ],
      "stateMutability": "pure",
      "type": "function"
    }
  ],
  "bytecode": "0x608060405234801561001057600080fd5b50604051610901380380610901833981810160405281019061003291906100dc565b60006301e1338090506000600c9050808261004d9190610172565b600081905550600054866100619190610172565b600281905550600054856100759190610172565b600181905550600054846100899190610172565b600381905550826004819055505050505050506101a3565b600080fd5b6000819050919050565b6100b9816100a6565b81146100c457600080fd5b50565b6000815190506100d6816100b0565b92915050565b600080600080608085870312156100f6576100f56100a1565b5b6000610104878288016100c7565b9450506020610115878288016100c7565b9350506040610126878288016100c7565b9250506060610137878288016100c7565b91505092959194509250565b7f4e487b7100000000000000000000000000000000000000000000000000000000600052601260045260246000fd5b600061017d826100a6565b9150610188836100a6565b92508261019857610197610143565b5b828204905092915050565b61074f806101b26000396000f3fe608060405234801561001057600080fd5b50600436106100935760003560e01c8063a385fb9611610066578063a385fb9614610134578063b816881614610152578063b9f9850a14610182578063f14039de146101a0578063fd2da339146101be57610093565b806315f24053146100985780632191f92a146100c85780636e71e2d8146100e65780638726bb8914610116575b600080fd5b6100b260048036038101906100ad919061044d565b6101dc565b6040516100bf91906104af565b60405180910390f35b6100d06102aa565b6040516100dd91906104e5565b60405180910390f35b61010060048036038101906100fb919061044d565b6102af565b60405161010d91906104af565b60405180910390f35b61011e610300565b60405161012b91906104af565b60405180910390f35b61013c610306565b60405161014991906104af565b60405180910390f35b61016c60048036038101906101679190610500565b61030c565b60405161017991906104af565b60405180910390f35b61018a610400565b60405161019791906104af565b60405180910390f35b6101a8610406565b6040516101b591906104af565b60405180910390f35b6101c661040c565b6040516101d391906104af565b60405180910390f35b6000806101ea8585856102af565b9050600454811161022b57600254670de0b6b3a76400006001548361020f9190610596565b6102199190610607565b6102239190610638565b9150506102a3565b6000600254670de0b6b3a76400006001546004546102499190610596565b6102539190610607565b61025d9190610638565b905060006004548361026f919061066c565b905081670de0b6b3a7640000600354836102899190610596565b6102939190610607565b61029d9190610638565b93505050505b9392505050565b600181565b60008083036102c157600090506102f9565b8183856102ce9190610638565b6102d8919061066c565b670de0b6b3a7640000846102ec9190610596565b6102f69190610607565b90505b9392505050565b60015481565b60005481565b60008082670de0b6b3a7640000610323919061066c565b905060003073ffffffffffffffffffffffffffffffffffffffff166315f240538888886040518463ffffffff1660e01b8152600401610364939291906106a0565b602060405180830381865afa158015610381573d6000803e3d6000fd5b505050506040513d601f19601f820116820180604052508101906103a591906106ec565b90506000670de0b6b3a764000083836103be9190610596565b6103c89190610607565b9050670de0b6b3a7640000816103df8a8a8a6102af565b6103e99190610596565b6103f39190610607565b9350505050949350505050565b60035481565b60025481565b60045481565b600080fd5b6000819050919050565b61042a81610417565b811461043557600080fd5b50565b60008135905061044781610421565b92915050565b60008060006060848603121561046657610465610412565b5b600061047486828701610438565b935050602061048586828701610438565b925050604061049686828701610438565b9150509250925092565b6104a981610417565b82525050565b60006020820190506104c460008301846104a0565b92915050565b60008115159050919050565b6104df816104ca565b82525050565b60006020820190506104fa60008301846104d6565b92915050565b6000806000806080858703121561051a57610519610412565b5b600061052887828801610438565b945050602061053987828801610438565b935050604061054a87828801610438565b925050606061055b87828801610438565b91505092959194509250565b7f4e487b7100000000000000000000000000000000000000000000000000000000600052601160045260246000fd5b60006105a182610417565b91506105ac83610417565b92508282026105ba81610417565b915082820484148315176105d1576105d0610567565b5b5092915050565b7f4e487b7100000000000000000000000000000000000000000000000000000000600052601260045260246000fd5b600061061282610417565b915061061d83610417565b92508261062d5761062c6105d8565b5b828204905092915050565b600061064382610417565b915061064e83610417565b925082820190508082111561066657610665610567565b5b92915050565b600061067782610417565b915061068283610417565b925082820390508181111561069a57610699610567565b5b92915050565b60006060820190506106b560008301866104a0565b6106c260208301856104a0565b6106cf60408301846104a0565b949350505050565b6000815190506106e681610421565b92915050565b60006020828403121561070257610701610412565b5b6000610710848285016106d7565b9150509291505056fea264697066735822122035ec23f7de44804545baa267d5bebf069eed441ced724071a96b3d8868d5172864736f6c634300081c0033",
  "linkReferences": {},
  "deployedLinkReferences": {}
}