{
  "_format": "hh-sol-artifact-1",
  "contractName": "Comptroller",
  "sourceName": "contracts/Comptroller.sol",
  "abi": [
    {
      "inputs": [],
      "stateMutability": "nonpayable",
      "type": "constructor"
    },
    {
      "inputs": [
        {
          "internalType": "address",
          "name": "owner",
          "type": "address"
        }
      ],
      "name": "OwnableInvalidOwner",
      "type": "error"
    },
    {
      "inputs": [
        {
          "internalType": "address",
          "name": "account",
          "type": "address"
        }
      ],
      "name": "OwnableUnauthorizedAccount",
      "type": "error"
    },
    {
      "anonymous": false,
      "inputs": [
        {
          "indexed": false,
          "internalType": "address",
          "name": "cToken",
          "type": "address"
        },
        {
          "indexed": false,
          "internalType": "address",
          "name": "account",
          "type": "address"
        }
      ],
      "name": "MarketEntered",
      "type": "event"
    },
    {
      "anonymous": false,
      "inputs": [
        {
          "indexed": false,
          "internalType": "address",
          "name": "cToken",
          "type": "address"
        },
        {
          "indexed": false,
          "internalType": "address",
          "name": "account",
          "type": "address"
        }
      ],
      "name": "MarketExited",
      "type": "event"
    },
    {
      "anonymous": false,
      "inputs": [
        {
          "indexed": false,
          "internalType": "address",
          "name": "cToken",
          "type": "address"
        }
      ],
      "name": "MarketListed",
      "type": "event"
    },
    {
      "anonymous": false,
      "inputs": [
        {
          "indexed": false,
          "internalType": "address",
          "name": "cToken",
          "type": "address"
        },
        {
          "indexed": false,
          "internalType": "uint256",
          "name": "oldCollateralFactorMantissa",
          "type": "uint256"
        },
        {
          "indexed": false,
          "internalType": "uint256",
          "name": "newCollateralFactorMantissa",
          "type": "uint256"
        }
      ],
      "name": "NewCollateralFactor",
      "type": "event"
    },
    {
      "anonymous": false,
      "inputs": [
        {
          "indexed": false,
          "internalType": "uint256",
          "name": "oldLiquidationIncentiveMantissa",
          "type": "uint256"
        },
        {
          "indexed": false,
          "internalType": "uint256",
          "name": "newLiquidationIncentiveMantissa",
          "type": "uint256"
        }
      ],
      "name": "NewLiquidationIncentive",
      "type": "event"
    },
    {
      "anonymous": false,
      "inputs": [
        {
          "indexed": false,
          "internalType": "contract PriceOracle",
          "name": "oldPriceOracle",
          "type": "address"
        },
        {
          "indexed": false,
          "internalType": "contract PriceOracle",
          "name": "newPriceOracle",
          "type": "address"
        }
      ],
      "name": "NewPriceOracle",
      "type": "event"
    },
    {
      "anonymous": false,
      "inputs": [
        {
          "indexed": true,
          "internalType": "address",
          "name": "previousOwner",
          "type": "address"
        },
        {
          "indexed": true,
          "internalType": "address",
          "name": "newOwner",
          "type": "address"
        }
      ],
      "name": "OwnershipTransferred",
      "type": "event"
    },
    {
      "inputs": [
        {
          "internalType": "address",
          "name": "cToken",
          "type": "address"
        },
        {
          "internalType": "uint256",
          "name": "newCollateralFactorMantissa",
          "type": "uint256"
        }
      ],
      "name": "_setCollateralFactor",
      "outputs": [
        {
          "internalType": "uint256",
          "name": "",
          "type": "uint256"
        }
      ],
      "stateMutability": "nonpayable",
      "type": "function"
    },
    {
      "inputs": [
        {
          "internalType": "uint256",
          "name": "newLiquidationIncentiveMantissa",
          "type": "uint256"
        }
      ],
      "name": "_setLiquidationIncentive",
      "outputs": [
        {
          "internalType": "uint256",
          "name": "",
          "type": "uint256"
        }
      ],
      "stateMutability": "nonpayable",
      "type": "function"
    },
    {
      "inputs": [
        {
          "internalType": "address[]",
          "name": "cTokens",
          "type": "address[]"
        },
        {
          "internalType": "uint256[]",
          "name": "newBorrowCaps",
          "type": "uint256[]"
        }
      ],
      "name": "_setMarketBorrowCaps",
      "outputs": [],
      "stateMutability": "nonpayable",
      "type": "function"
    },
    {
      "inputs": [
        {
          "internalType": "contract PriceOracle",
          "name": "newOracle",
          "type": "address"
        }
      ],
      "name": "_setPriceOracle",
      "outputs": [
        {
          "internalType": "uint256",
          "name": "",
          "type": "uint256"
        }
      ],
      "stateMutability": "nonpayable",
      "type": "function"
    },
    {
      "inputs": [
        {
          "internalType": "address",
          "name": "cToken",
          "type": "address"
        }
      ],
      "name": "_supportMarket",
      "outputs": [
        {
          "internalType": "uint256",
          "name": "",
          "type": "uint256"
        }
      ],
      "stateMutability": "nonpayable",
      "type": "function"
    },
    {
      "inputs": [
        {
          "internalType": "address",
          "name": "",
          "type": "address"
        },
        {
          "internalType": "uint256",
          "name": "",
          "type": "uint256"
        }
      ],
      "name": "accountAssets",
      "outputs": [
        {
          "internalType": "address",
          "name": "",
          "type": "address"
        }
      ],
      "stateMutability": "view",
      "type": "function"
    },
    {
      "inputs": [
        {
          "internalType": "address",
          "name": "cToken",
          "type": "address"
        },
        {
          "internalType": "address",
          "name": "borrower",
          "type": "address"
        },
        {
          "internalType": "uint256",
          "name": "borrowAmount",
          "type": "uint256"
        }
      ],
      "name": "borrowAllowed",
      "outputs": [
        {
          "internalType": "uint256",
          "name": "",
          "type": "uint256"
        }
      ],
      "stateMutability": "nonpayable",
      "type": "function"
    },
    {
      "inputs": [
        {
          "internalType": "address",
          "name": "",
          "type": "address"
        }
      ],
      "name": "borrowCaps",
      "outputs": [
        {
          "internalType": "uint256",
          "name": "",
          "type": "uint256"
        }
      ],
      "stateMutability": "view",
      "type": "function"
    },
    {
      "inputs": [
        {
          "internalType": "address",
          "name": "",
          "type": "address"
        }
      ],
      "name": "borrowGuardianPaused",
      "outputs": [
        {
          "internalType": "bool",
          "name": "",
          "type": "bool"
        }
      ],
      "stateMutability": "view",
      "type": "function"
    },
    {
      "inputs": [],
      "name": "closeFactorMantissa",
      "outputs": [
        {
          "internalType": "uint256",
          "name": "",
          "type": "uint256"
        }
      ],
      "stateMutability": "view",
      "type": "function"
    },
    {
      "inputs": [
        {
          "internalType": "address[]",
          "name": "cTokens",
          "type": "address[]"
        }
      ],
      "name": "enterMarkets",
      "outputs": [
        {
          "internalType": "uint256[]",
          "name": "",
          "type": "uint256[]"
        }
      ],
      "stateMutability": "nonpayable",
      "type": "function"
    },
    {
      "inputs": [
        {
          "internalType": "address",
          "name": "cTokenAddress",
          "type": "address"
        }
      ],
      "name": "exitMarket",
      "outputs": [
        {
          "internalType": "uint256",
          "name": "",
          "type": "uint256"
        }
      ],
      "stateMutability": "nonpayable",
      "type": "function"
    },
    {
      "inputs": [
        {
          "internalType": "address",
          "name": "account",
          "type": "address"
        }
      ],
      "name": "getAccountLiquidity",
      "outputs": [
        {
          "internalType": "uint256",
          "name": "",
          "type": "uint256"
        },
        {
          "internalType": "uint256",
          "name": "",
          "type": "uint256"
        },
        {
          "internalType": "uint256",
          "name": "",
          "type": "uint256"
        }
      ],
      "stateMutability": "view",
      "type": "function"
    },
    {
      "inputs": [
        {
          "internalType": "address",
          "name": "account",
          "type": "address"
        }
      ],
      "name": "getAssetsIn",
      "outputs": [
        {
          "internalType": "address[]",
          "name": "",
          "type": "address[]"
        }
      ],
      "stateMutability": "view",
      "type": "function"
    },
    {
      "inputs": [
        {
          "internalType": "address",
          "name": "cTokenBorrowed",
          "type": "address"
        },
        {
          "internalType": "address",
          "name": "cTokenCollateral",
          "type": "address"
        },
        {
          "internalType": "address",
          "name": "liquidator",
          "type": "address"
        },
        {
          "internalType": "address",
          "name": "borrower",
          "type": "address"
        },
        {
          "internalType": "uint256",
          "name": "repayAmount",
          "type": "uint256"
        }
      ],
      "name": "liquidateBorrowAllowed",
      "outputs": [
        {
          "internalType": "uint256",
          "name": "",
          "type": "uint256"
        }
      ],
      "stateMutability": "nonpayable",
      "type": "function"
    },
    {
      "inputs": [
        {
          "internalType": "address",
          "name": "cTokenBorrowed",
          "type": "address"
        },
        {
          "internalType": "address",
          "name": "cTokenCollateral",
          "type": "address"
        },
        {
          "internalType": "uint256",
          "name": "actualRepayAmount",
          "type": "uint256"
        }
      ],
      "name": "liquidateCalculateSeizeTokens",
      "outputs": [
        {
          "internalType": "uint256",
          "name": "",
          "type": "uint256"
        },
        {
          "internalType": "uint256",
          "name": "",
          "type": "uint256"
        }
      ],
      "stateMutability": "view",
      "type": "function"
    },
    {
      "inputs": [],
      "name": "liquidationIncentiveMantissa",
      "outputs": [
        {
          "internalType": "uint256",
          "name": "",
          "type": "uint256"
        }
      ],
      "stateMutability": "view",
      "type": "function"
    },
    {
      "inputs": [
        {
          "internalType": "address",
          "name": "",
          "type": "address"
        }
      ],
      "name": "markets",
      "outputs": [
        {
          "internalType": "bool",
          "name": "isListed",
          "type": "bool"
        },
        {
          "internalType": "uint256",
          "name": "collateralFactorMantissa",
          "type": "uint256"
        }
      ],
      "stateMutability": "view",
      "type": "function"
    },
    {
      "inputs": [],
      "name": "maxAssets",
      "outputs": [
        {
          "internalType": "uint256",
          "name": "",
          "type": "uint256"
        }
      ],
      "stateMutability": "view",
      "type": "function"
    },
    {
      "inputs": [
        {
          "internalType": "address",
          "name": "cToken",
          "type": "address"
        },
        {
          "internalType": "address",
          "name": "minter",
          "type": "address"
        },
        {
          "internalType": "uint256",
          "name": "mintAmount",
          "type": "uint256"
        }
      ],
      "name": "mintAllowed",
      "outputs": [
        {
          "internalType": "uint256",
          "name": "",
          "type": "uint256"
        }
      ],
      "stateMutability": "nonpayable",
      "type": "function"
    },
    {
      "inputs": [
        {
          "internalType": "address",
          "name": "",
          "type": "address"
        }
      ],
      "name": "mintGuardianPaused",
      "outputs": [
        {
          "internalType": "bool",
          "name": "",
          "type": "bool"
        }
      ],
      "stateMutability": "view",
      "type": "function"
    },
    {
      "inputs": [],
      "name": "oracle",
      "outputs": [
        {
          "internalType": "contract PriceOracle",
          "name": "",
          "type": "address"
        }
      ],
      "stateMutability": "view",
      "type": "function"
    },
    {
      "inputs": [],
      "name": "owner",
      "outputs": [
        {
          "internalType": "address",
          "name": "",
          "type": "address"
        }
      ],
      "stateMutability": "view",
      "type": "function"
    },
    {
      "inputs": [
        {
          "internalType": "address",
          "name": "cToken",
          "type": "address"
        },
        {
          "internalType": "address",
          "name": "redeemer",
          "type": "address"
        },
        {
          "internalType": "uint256",
          "name": "redeemTokens",
          "type": "uint256"
        }
      ],
      "name": "redeemAllowed",
      "outputs": [
        {
          "internalType": "uint256",
          "name": "",
          "type": "uint256"
        }
      ],
      "stateMutability": "nonpayable",
      "type": "function"
    },
    {
      "inputs": [],
      "name": "renounceOwnership",
      "outputs": [],
      "stateMutability": "nonpayable",
      "type": "function"
    },
    {
      "inputs": [
        {
          "internalType": "address",
          "name": "cToken",
          "type": "address"
        },
        {
          "internalType": "address",
          "name": "payer",
          "type": "address"
        },
        {
          "internalType": "address",
          "name": "borrower",
          "type": "address"
        },
        {
          "internalType": "uint256",
          "name": "repayAmount",
          "type": "uint256"
        }
      ],
      "name": "repayBorrowAllowed",
      "outputs": [
        {
          "internalType": "uint256",
          "name": "",
          "type": "uint256"
        }
      ],
      "stateMutability": "nonpayable",
      "type": "function"
    },
    {
      "inputs": [
        {
          "internalType": "address",
          "name": "newOwner",
          "type": "address"
        }
      ],
      "name": "transferOwnership",
      "outputs": [],
      "stateMutability": "nonpayable",
      "type": "function"
    }
  ],
  "bytecode": "0x60806040526706f05b59d3b20000600555670efcee47256c0000600655600a60075534801561002d57600080fd5b5033600073ffffffffffffffffffffffffffffffffffffffff168173ffffffffffffffffffffffffffffffffffffffff16036100a15760006040517f1e4fbdf700000000000000000000000000000000000000000000000000000000815260040161009891906101bb565b60405180910390fd5b6100b0816100b660201b60201c565b506101d6565b60008060009054906101000a900473ffffffffffffffffffffffffffffffffffffffff169050816000806101000a81548173ffffffffffffffffffffffffffffffffffffffff021916908373ffffffffffffffffffffffffffffffffffffffff1602179055508173ffffffffffffffffffffffffffffffffffffffff168173ffffffffffffffffffffffffffffffffffffffff167f8be0079c531659141344cd1fd0a4f28419497f9722a3daafe3b4186f6b6457e060405160405180910390a35050565b600073ffffffffffffffffffffffffffffffffffffffff82169050919050565b60006101a58261017a565b9050919050565b6101b58161019a565b82525050565b60006020820190506101d060008301846101ac565b92915050565b613107806101e56000396000f3fe608060405234801561001057600080fd5b50600436106101a95760003560e01c80638da5cb5b116100f9578063da3d454c11610097578063e875544611610071578063e875544614610580578063eabe7d911461059e578063ede4edd0146105ce578063f2fde38b146105fe576101a9565b8063da3d454c146104f0578063dce1544914610520578063e4028eee14610550576101a9565b8063a76b3fda116100d3578063a76b3fda1461042f578063abfceffc1461045f578063c29982381461048f578063c488847b146104bf576101a9565b80638da5cb5b146103c25780638e8f294b146103e057806394b2294b14610411576101a9565b80635ec88c79116101665780636d154ea5116101405780636d154ea51461033a578063715018a61461036a578063731f0c2b146103745780637dc0d1d0146103a4576101a9565b80635ec88c79146102bc5780635fc7e71e146102ee578063607ef6c11461031e576101a9565b806324008a62146101ae5780634a584432146101de5780634ada90af1461020e5780634ef4c3e11461022c5780634fd42e171461025c57806355ee1fe11461028c575b600080fd5b6101c860048036038101906101c391906124fc565b61061a565b6040516101d59190612572565b60405180910390f35b6101f860048036038101906101f3919061258d565b6106aa565b6040516102059190612572565b60405180910390f35b6102166106c2565b6040516102239190612572565b60405180910390f35b610246600480360381019061024191906125ba565b6106c8565b6040516102539190612572565b60405180910390f35b6102766004803603810190610271919061260d565b6107c4565b6040516102839190612572565b60405180910390f35b6102a660048036038101906102a19190612678565b610831565b6040516102b39190612572565b60405180910390f35b6102d660048036038101906102d1919061258d565b6108f8565b6040516102e5939291906126a5565b60405180910390f35b610308600480360381019061030391906126dc565b610935565b6040516103159190612572565b60405180910390f35b61033860048036038101906103339190612812565b610aa0565b005b610354600480360381019061034f919061258d565b610b99565b60405161036191906128ae565b60405180910390f35b610372610bb9565b005b61038e6004803603810190610389919061258d565b610bcd565b60405161039b91906128ae565b60405180910390f35b6103ac610bed565b6040516103b99190612928565b60405180910390f35b6103ca610c13565b6040516103d79190612952565b60405180910390f35b6103fa60048036038101906103f5919061258d565b610c3c565b60405161040892919061296d565b60405180910390f35b610419610c6d565b6040516104269190612572565b60405180910390f35b6104496004803603810190610444919061258d565b610c73565b6040516104569190612572565b60405180910390f35b6104796004803603810190610474919061258d565b610de2565b6040516104869190612a54565b60405180910390f35b6104a960048036038101906104a49190612bc5565b610eaf565b6040516104b69190612ccc565b60405180910390f35b6104d960048036038101906104d491906125ba565b610f65565b6040516104e7929190612cee565b60405180910390f35b61050a600480360381019061050591906125ba565b6111b5565b6040516105179190612572565b60405180910390f35b61053a60048036038101906105359190612d17565b611619565b6040516105479190612952565b60405180910390f35b61056a60048036038101906105659190612d17565b611667565b6040516105779190612572565b60405180910390f35b61058861177e565b6040516105959190612572565b60405180910390f35b6105b860048036038101906105b391906125ba565b611784565b6040516105c59190612572565b60405180910390f35b6105e860048036038101906105e3919061258d565b6117d6565b6040516105f59190612572565b60405180910390f35b6106186004803603810190610613919061258d565b611af5565b005b6000600160008673ffffffffffffffffffffffffffffffffffffffff1673ffffffffffffffffffffffffffffffffffffffff16815260200190815260200160002060000160009054906101000a900460ff1661068b576009601081111561068457610683612d57565b5b90506106a2565b6000601081111561069f5761069e612d57565b5b90505b949350505050565b60036020528060005260406000206000915090505481565b60065481565b6000600860008573ffffffffffffffffffffffffffffffffffffffff1673ffffffffffffffffffffffffffffffffffffffff16815260200190815260200160002060009054906101000a900460ff161561073757600e60108111156107305761072f612d57565b5b90506107bd565b600160008573ffffffffffffffffffffffffffffffffffffffff1673ffffffffffffffffffffffffffffffffffffffff16815260200190815260200160002060000160009054906101000a900460ff166107a6576009601081111561079f5761079e612d57565b5b90506107bd565b600060108111156107ba576107b9612d57565b5b90505b9392505050565b60006107ce611b7b565b60006006549050826006819055507faeba5a6c40a8ac138134bff1aaa65debf25971188a58804bad717f82f0ec1316818460405161080d929190612cee565b60405180910390a16000601081111561082957610828612d57565b5b915050919050565b600061083b611b7b565b6000600460009054906101000a900473ffffffffffffffffffffffffffffffffffffffff16905082600460006101000a81548173ffffffffffffffffffffffffffffffffffffffff021916908373ffffffffffffffffffffffffffffffffffffffff1602179055507fd52b2b9b7e9ee655fcb95d2e5b9e0c9f69e7ef2b8e9d2d0ea78402d576d22e2281846040516108d4929190612d86565b60405180910390a1600060108111156108f0576108ef612d57565b5b915050919050565b60008060008060008061090a87611c02565b92509250925082601081111561092357610922612d57565b5b82829550955095505050509193909250565b6000600160008773ffffffffffffffffffffffffffffffffffffffff1673ffffffffffffffffffffffffffffffffffffffff16815260200190815260200160002060000160009054906101000a900460ff1615806109e05750600160008673ffffffffffffffffffffffffffffffffffffffff1673ffffffffffffffffffffffffffffffffffffffff16815260200190815260200160002060000160009054906101000a900460ff16155b15610a0057600960108111156109f9576109f8612d57565b5b9050610a97565b600080610a0c85611c02565b925050915060006010811115610a2557610a24612d57565b5b826010811115610a3857610a37612d57565b5b14610a5957816010811115610a5057610a4f612d57565b5b92505050610a97565b60008103610a7e5760036010811115610a7557610a74612d57565b5b92505050610a97565b60006010811115610a9257610a91612d57565b5b925050505b95945050505050565b610aa8611b7b565b6000848490509050828290508114610af5576040517f08c379a0000000000000000000000000000000000000000000000000000000008152600401610aec90612e0c565b60405180910390fd5b60005b81811015610b9157838382818110610b1357610b12612e2c565b5b9050602002013560036000888885818110610b3157610b30612e2c565b5b9050602002016020810190610b46919061258d565b73ffffffffffffffffffffffffffffffffffffffff1673ffffffffffffffffffffffffffffffffffffffff168152602001908152602001600020819055508080600101915050610af8565b505050505050565b60096020528060005260406000206000915054906101000a900460ff1681565b610bc1611b7b565b610bcb6000611c22565b565b60086020528060005260406000206000915054906101000a900460ff1681565b600460009054906101000a900473ffffffffffffffffffffffffffffffffffffffff1681565b60008060009054906101000a900473ffffffffffffffffffffffffffffffffffffffff16905090565b60016020528060005260406000206000915090508060000160009054906101000a900460ff16908060010154905082565b60075481565b6000610c7d611b7b565b600160008373ffffffffffffffffffffffffffffffffffffffff1673ffffffffffffffffffffffffffffffffffffffff16815260200190815260200160002060000160009054906101000a900460ff1615610ced57600a6010811115610ce657610ce5612d57565b5b9050610ddd565b60018060008473ffffffffffffffffffffffffffffffffffffffff1673ffffffffffffffffffffffffffffffffffffffff16815260200190815260200160002060000160006101000a81548160ff0219169083151502179055506000600160008473ffffffffffffffffffffffffffffffffffffffff1673ffffffffffffffffffffffffffffffffffffffff168152602001908152602001600020600101819055507fcf583bb0c569eb967f806b11601c4cb93c10310485c67add5f8362c2f212321f82604051610dbe9190612952565b60405180910390a160006010811115610dda57610dd9612d57565b5b90505b919050565b6060600260008373ffffffffffffffffffffffffffffffffffffffff1673ffffffffffffffffffffffffffffffffffffffff168152602001908152602001600020805480602002602001604051908101604052809291908181526020018280548015610ea357602002820191906000526020600020905b8160009054906101000a900473ffffffffffffffffffffffffffffffffffffffff1673ffffffffffffffffffffffffffffffffffffffff1681526020019060010190808311610e59575b50505050509050919050565b60606000825167ffffffffffffffff811115610ece57610ecd612a87565b5b604051908082528060200260200182016040528015610efc5781602001602082028036833780820191505090505b50905060005b8351811015610f5b57610f2f848281518110610f2157610f20612e2c565b5b602002602001015133611ce6565b828281518110610f4257610f41612e2c565b5b6020026020010181815250508080600101915050610f02565b5080915050919050565b6000806000600460009054906101000a900473ffffffffffffffffffffffffffffffffffffffff1673ffffffffffffffffffffffffffffffffffffffff1663fc57d4df876040518263ffffffff1660e01b8152600401610fc59190612952565b602060405180830381865afa158015610fe2573d6000803e3d6000fd5b505050506040513d601f19601f820116820180604052508101906110069190612e70565b90506000600460009054906101000a900473ffffffffffffffffffffffffffffffffffffffff1673ffffffffffffffffffffffffffffffffffffffff1663fc57d4df876040518263ffffffff1660e01b81526004016110659190612952565b602060405180830381865afa158015611082573d6000803e3d6000fd5b505050506040513d601f19601f820116820180604052508101906110a69190612e70565b905060008214806110b75750600081145b156110dd57600d60108111156110d0576110cf612d57565b5b60009350935050506111ad565b60008673ffffffffffffffffffffffffffffffffffffffff1663182df0f56040518163ffffffff1660e01b8152600401602060405180830381865afa15801561112a573d6000803e3d6000fd5b505050506040513d601f19601f8201168201806040525081019061114e9190612e70565b9050600083600654886111619190612ecc565b61116b9190612ecc565b90506000828461117b9190612ecc565b90506000818361118b9190612f3d565b9050600060108111156111a1576111a0612d57565b5b81975097505050505050505b935093915050565b6000600960008573ffffffffffffffffffffffffffffffffffffffff1673ffffffffffffffffffffffffffffffffffffffff16815260200190815260200160002060009054906101000a900460ff161561122457600e601081111561121d5761121c612d57565b5b9050611612565b600160008573ffffffffffffffffffffffffffffffffffffffff1673ffffffffffffffffffffffffffffffffffffffff16815260200190815260200160002060000160009054906101000a900460ff16611293576009601081111561128c5761128b612d57565b5b9050611612565b600160008573ffffffffffffffffffffffffffffffffffffffff1673ffffffffffffffffffffffffffffffffffffffff16815260200190815260200160002060020160008473ffffffffffffffffffffffffffffffffffffffff1673ffffffffffffffffffffffffffffffffffffffff16815260200190815260200160002060009054906101000a900460ff166113c5578373ffffffffffffffffffffffffffffffffffffffff163373ffffffffffffffffffffffffffffffffffffffff1614611392576040517f08c379a000000000000000000000000000000000000000000000000000000000815260040161138990612fba565b60405180910390fd5b600061139e8585611ce6565b9050600060108111156113b4576113b3612d57565b5b81146113c35780915050611612565b505b6000600460009054906101000a900473ffffffffffffffffffffffffffffffffffffffff1673ffffffffffffffffffffffffffffffffffffffff1663fc57d4df866040518263ffffffff1660e01b81526004016114229190612952565b602060405180830381865afa15801561143f573d6000803e3d6000fd5b505050506040513d601f19601f820116820180604052508101906114639190612e70565b0361148357600d601081111561147c5761147b612d57565b5b9050611612565b6000600360008673ffffffffffffffffffffffffffffffffffffffff1673ffffffffffffffffffffffffffffffffffffffff168152602001908152602001600020549050600081146115735760008573ffffffffffffffffffffffffffffffffffffffff166347bd37186040518163ffffffff1660e01b8152600401602060405180830381865afa15801561151c573d6000803e3d6000fd5b505050506040513d601f19601f820116820180604052508101906115409190612e70565b905081848261154f9190612fda565b11156115715760108081111561156857611567612d57565b5b92505050611612565b505b6000806115838688600088611f84565b92505091506000601081111561159c5761159b612d57565b5b8260108111156115af576115ae612d57565b5b146115d1578160108111156115c7576115c6612d57565b5b9350505050611612565b60008111156115f857600460108111156115ee576115ed612d57565b5b9350505050611612565b6000601081111561160c5761160b612d57565b5b93505050505b9392505050565b6002602052816000526040600020818154811061163557600080fd5b906000526020600020016000915091509054906101000a900473ffffffffffffffffffffffffffffffffffffffff1681565b6000611671611b7b565b6000600160008573ffffffffffffffffffffffffffffffffffffffff1673ffffffffffffffffffffffffffffffffffffffff16815260200190815260200160002090508060000160009054906101000a900460ff166116e657600960108111156116de576116dd612d57565b5b915050611778565b670c7d713b49da0000831115611712576006601081111561170a57611709612d57565b5b915050611778565b6000816001015490508382600101819055507f70483e6592cd5182d45ac970e05bc62cdcc90e9d8ef2c2dbe686cf383bcd7fc58582866040516117579392919061300e565b60405180910390a16000601081111561177357611772612d57565b5b925050505b92915050565b60055481565b6000806117928585856123bd565b9050600060108111156117a8576117a7612d57565b5b81146117b757809150506117cf565b600060108111156117cb576117ca612d57565b5b9150505b9392505050565b600080600160008473ffffffffffffffffffffffffffffffffffffffff1673ffffffffffffffffffffffffffffffffffffffff16815260200190815260200160002090508060020160003373ffffffffffffffffffffffffffffffffffffffff1673ffffffffffffffffffffffffffffffffffffffff16815260200190815260200160002060009054906101000a900460ff16611889576000601081111561188157611880612d57565b5b915050611af0565b8060020160003373ffffffffffffffffffffffffffffffffffffffff1673ffffffffffffffffffffffffffffffffffffffff16815260200190815260200160002060006101000a81549060ff02191690556000600260003373ffffffffffffffffffffffffffffffffffffffff1673ffffffffffffffffffffffffffffffffffffffff168152602001908152602001600020905060005b8180549050811015611a9d578473ffffffffffffffffffffffffffffffffffffffff1682828154811061195657611955612e2c565b5b9060005260206000200160009054906101000a900473ffffffffffffffffffffffffffffffffffffffff1673ffffffffffffffffffffffffffffffffffffffff1603611a905781600183805490506119ae9190613045565b815481106119bf576119be612e2c565b5b9060005260206000200160009054906101000a900473ffffffffffffffffffffffffffffffffffffffff168282815481106119fd576119fc612e2c565b5b9060005260206000200160006101000a81548173ffffffffffffffffffffffffffffffffffffffff021916908373ffffffffffffffffffffffffffffffffffffffff16021790555081805480611a5657611a55613079565b5b6001900381819060005260206000200160006101000a81549073ffffffffffffffffffffffffffffffffffffffff02191690559055611a9d565b8080600101915050611920565b507fe699a64c18b07ac5b7301aa273f36a2287239eb9501d81950672794afba29a0d8433604051611acf9291906130a8565b60405180910390a160006010811115611aeb57611aea612d57565b5b925050505b919050565b611afd611b7b565b600073ffffffffffffffffffffffffffffffffffffffff168173ffffffffffffffffffffffffffffffffffffffff1603611b6f5760006040517f1e4fbdf7000000000000000000000000000000000000000000000000000000008152600401611b669190612952565b60405180910390fd5b611b7881611c22565b50565b611b8361244c565b73ffffffffffffffffffffffffffffffffffffffff16611ba1610c13565b73ffffffffffffffffffffffffffffffffffffffff1614611c0057611bc461244c565b6040517f118cdaa7000000000000000000000000000000000000000000000000000000008152600401611bf79190612952565b60405180910390fd5b565b6000806000611c15846000806000611f84565b9250925092509193909250565b60008060009054906101000a900473ffffffffffffffffffffffffffffffffffffffff169050816000806101000a81548173ffffffffffffffffffffffffffffffffffffffff021916908373ffffffffffffffffffffffffffffffffffffffff1602179055508173ffffffffffffffffffffffffffffffffffffffff168173ffffffffffffffffffffffffffffffffffffffff167f8be0079c531659141344cd1fd0a4f28419497f9722a3daafe3b4186f6b6457e060405160405180910390a35050565b600080600160008573ffffffffffffffffffffffffffffffffffffffff1673ffffffffffffffffffffffffffffffffffffffff16815260200190815260200160002090508060000160009054906101000a900460ff16611d5c5760096010811115611d5457611d53612d57565b5b915050611f7e565b8060020160008473ffffffffffffffffffffffffffffffffffffffff1673ffffffffffffffffffffffffffffffffffffffff16815260200190815260200160002060009054906101000a900460ff1615611dcc5760006010811115611dc457611dc3612d57565b5b915050611f7e565b600754600260008573ffffffffffffffffffffffffffffffffffffffff1673ffffffffffffffffffffffffffffffffffffffff1681526020019081526020016000208054905010611e3357600b6010811115611e2b57611e2a612d57565b5b915050611f7e565b60018160020160008573ffffffffffffffffffffffffffffffffffffffff1673ffffffffffffffffffffffffffffffffffffffff16815260200190815260200160002060006101000a81548160ff021916908315150217905550600260008473ffffffffffffffffffffffffffffffffffffffff1673ffffffffffffffffffffffffffffffffffffffff168152602001908152602001600020849080600181540180825580915050600190039060005260206000200160009091909190916101000a81548173ffffffffffffffffffffffffffffffffffffffff021916908373ffffffffffffffffffffffffffffffffffffffff1602179055507f3ab23ab0d51cccc0c3085aec51f99228625aa1a922b3a8ca89a26b0f2027a1a58484604051611f5e9291906130a8565b60405180910390a160006010811115611f7a57611f79612d57565b5b9150505b92915050565b60008060008060009050600080600260008b73ffffffffffffffffffffffffffffffffffffffff1673ffffffffffffffffffffffffffffffffffffffff16815260200190815260200160002080548060200260200160405190810160405280929190818152602001828054801561205057602002820191906000526020600020905b8160009054906101000a900473ffffffffffffffffffffffffffffffffffffffff1673ffffffffffffffffffffffffffffffffffffffff1681526020019060010190808311612006575b5050505050905060005b815181101561225557600082828151811061207857612077612e2c565b5b602002602001015190506000600460009054906101000a900473ffffffffffffffffffffffffffffffffffffffff1673ffffffffffffffffffffffffffffffffffffffff1663fc57d4df836040518263ffffffff1660e01b81526004016120df9190612952565b602060405180830381865afa1580156120fc573d6000803e3d6000fd5b505050506040513d601f19601f820116820180604052508101906121209190612e70565b90506000810361214057600d6000809850985098505050505050506123b3565b600068056bc75e2d63100000905060006802b5e3af16b188000090506000670de0b6b3a764000090506000600160008773ffffffffffffffffffffffffffffffffffffffff1673ffffffffffffffffffffffffffffffffffffffff1681526020019081526020016000206001015490506000670de0b6b3a764000083866121c79190612ecc565b6121d19190612f3d565b9050670de0b6b3a7640000808388846121ea9190612ecc565b6121f49190612ecc565b6121fe9190612f3d565b6122089190612f3d565b8b6122139190612fda565b9a50670de0b6b3a7640000868561222a9190612ecc565b6122349190612f3d565b8a61223f9190612fda565b995050505050505050808060010191505061205a565b50600073ffffffffffffffffffffffffffffffffffffffff168973ffffffffffffffffffffffffffffffffffffffff1614612374576000600460009054906101000a900473ffffffffffffffffffffffffffffffffffffffff1673ffffffffffffffffffffffffffffffffffffffff1663fc57d4df8b6040518263ffffffff1660e01b81526004016122e79190612952565b602060405180830381865afa158015612304573d6000803e3d6000fd5b505050506040513d601f19601f820116820180604052508101906123289190612e70565b90506000810361234657600d600080965096509650505050506123b3565b670de0b6b3a7640000818961235b9190612ecc565b6123659190612f3d565b836123709190612fda565b9250505b8183111561239a576000828461238a9190613045565b60009550955095505050506123b3565b60008084846123a99190613045565b9550955095505050505b9450945094915050565b6000600160008573ffffffffffffffffffffffffffffffffffffffff1673ffffffffffffffffffffffffffffffffffffffff16815260200190815260200160002060000160009054906101000a900460ff1661242e576009601081111561242757612426612d57565b5b9050612445565b6000601081111561244257612441612d57565b5b90505b9392505050565b600033905090565b6000604051905090565b600080fd5b600080fd5b600073ffffffffffffffffffffffffffffffffffffffff82169050919050565b600061249382612468565b9050919050565b6124a381612488565b81146124ae57600080fd5b50565b6000813590506124c08161249a565b92915050565b6000819050919050565b6124d9816124c6565b81146124e457600080fd5b50565b6000813590506124f6816124d0565b92915050565b600080600080608085870312156125165761251561245e565b5b6000612524878288016124b1565b9450506020612535878288016124b1565b9350506040612546878288016124b1565b9250506060612557878288016124e7565b91505092959194509250565b61256c816124c6565b82525050565b60006020820190506125876000830184612563565b92915050565b6000602082840312156125a3576125a261245e565b5b60006125b1848285016124b1565b91505092915050565b6000806000606084860312156125d3576125d261245e565b5b60006125e1868287016124b1565b93505060206125f2868287016124b1565b9250506040612603868287016124e7565b9150509250925092565b6000602082840312156126235761262261245e565b5b6000612631848285016124e7565b91505092915050565b600061264582612488565b9050919050565b6126558161263a565b811461266057600080fd5b50565b6000813590506126728161264c565b92915050565b60006020828403121561268e5761268d61245e565b5b600061269c84828501612663565b91505092915050565b60006060820190506126ba6000830186612563565b6126c76020830185612563565b6126d46040830184612563565b949350505050565b600080600080600060a086880312156126f8576126f761245e565b5b6000612706888289016124b1565b9550506020612717888289016124b1565b9450506040612728888289016124b1565b9350506060612739888289016124b1565b925050608061274a888289016124e7565b9150509295509295909350565b600080fd5b600080fd5b600080fd5b60008083601f84011261277c5761277b612757565b5b8235905067ffffffffffffffff8111156127995761279861275c565b5b6020830191508360208202830111156127b5576127b4612761565b5b9250929050565b60008083601f8401126127d2576127d1612757565b5b8235905067ffffffffffffffff8111156127ef576127ee61275c565b5b60208301915083602082028301111561280b5761280a612761565b5b9250929050565b6000806000806040858703121561282c5761282b61245e565b5b600085013567ffffffffffffffff81111561284a57612849612463565b5b61285687828801612766565b9450945050602085013567ffffffffffffffff81111561287957612878612463565b5b612885878288016127bc565b925092505092959194509250565b60008115159050919050565b6128a881612893565b82525050565b60006020820190506128c3600083018461289f565b92915050565b6000819050919050565b60006128ee6128e96128e484612468565b6128c9565b612468565b9050919050565b6000612900826128d3565b9050919050565b6000612912826128f5565b9050919050565b61292281612907565b82525050565b600060208201905061293d6000830184612919565b92915050565b61294c81612488565b82525050565b60006020820190506129676000830184612943565b92915050565b6000604082019050612982600083018561289f565b61298f6020830184612563565b9392505050565b600081519050919050565b600082825260208201905092915050565b6000819050602082019050919050565b6129cb81612488565b82525050565b60006129dd83836129c2565b60208301905092915050565b6000602082019050919050565b6000612a0182612996565b612a0b81856129a1565b9350612a16836129b2565b8060005b83811015612a47578151612a2e88826129d1565b9750612a39836129e9565b925050600181019050612a1a565b5085935050505092915050565b60006020820190508181036000830152612a6e81846129f6565b905092915050565b6000601f19601f8301169050919050565b7f4e487b7100000000000000000000000000000000000000000000000000000000600052604160045260246000fd5b612abf82612a76565b810181811067ffffffffffffffff82111715612ade57612add612a87565b5b80604052505050565b6000612af1612454565b9050612afd8282612ab6565b919050565b600067ffffffffffffffff821115612b1d57612b1c612a87565b5b602082029050602081019050919050565b6000612b41612b3c84612b02565b612ae7565b90508083825260208201905060208402830185811115612b6457612b63612761565b5b835b81811015612b8d5780612b7988826124b1565b845260208401935050602081019050612b66565b5050509392505050565b600082601f830112612bac57612bab612757565b5b8135612bbc848260208601612b2e565b91505092915050565b600060208284031215612bdb57612bda61245e565b5b600082013567ffffffffffffffff811115612bf957612bf8612463565b5b612c0584828501612b97565b91505092915050565b600081519050919050565b600082825260208201905092915050565b6000819050602082019050919050565b612c43816124c6565b82525050565b6000612c558383612c3a565b60208301905092915050565b6000602082019050919050565b6000612c7982612c0e565b612c838185612c19565b9350612c8e83612c2a565b8060005b83811015612cbf578151612ca68882612c49565b9750612cb183612c61565b925050600181019050612c92565b5085935050505092915050565b60006020820190508181036000830152612ce68184612c6e565b905092915050565b6000604082019050612d036000830185612563565b612d106020830184612563565b9392505050565b60008060408385031215612d2e57612d2d61245e565b5b6000612d3c858286016124b1565b9250506020612d4d858286016124e7565b9150509250929050565b7f4e487b7100000000000000000000000000000000000000000000000000000000600052602160045260246000fd5b6000604082019050612d9b6000830185612919565b612da86020830184612919565b9392505050565b600082825260208201905092915050565b7f696e76616c696420696e70757400000000000000000000000000000000000000600082015250565b6000612df6600d83612daf565b9150612e0182612dc0565b602082019050919050565b60006020820190508181036000830152612e2581612de9565b9050919050565b7f4e487b7100000000000000000000000000000000000000000000000000000000600052603260045260246000fd5b600081519050612e6a816124d0565b92915050565b600060208284031215612e8657612e8561245e565b5b6000612e9484828501612e5b565b91505092915050565b7f4e487b7100000000000000000000000000000000000000000000000000000000600052601160045260246000fd5b6000612ed7826124c6565b9150612ee2836124c6565b9250828202612ef0816124c6565b91508282048414831517612f0757612f06612e9d565b5b5092915050565b7f4e487b7100000000000000000000000000000000000000000000000000000000600052601260045260246000fd5b6000612f48826124c6565b9150612f53836124c6565b925082612f6357612f62612f0e565b5b828204905092915050565b7f73656e646572206d7573742062652063546f6b656e0000000000000000000000600082015250565b6000612fa4601583612daf565b9150612faf82612f6e565b602082019050919050565b60006020820190508181036000830152612fd381612f97565b9050919050565b6000612fe5826124c6565b9150612ff0836124c6565b925082820190508082111561300857613007612e9d565b5b92915050565b60006060820190506130236000830186612943565b6130306020830185612563565b61303d6040830184612563565b949350505050565b6000613050826124c6565b915061305b836124c6565b925082820390508181111561307357613072612e9d565b5b92915050565b7f4e487b7100000000000000000000000000000000000000000000000000000000600052603160045260246000fd5b60006040820190506130bd6000830185612943565b6130ca6020830184612943565b939250505056fea2646970667358221220227f2f7d31a43682487a3c9bbc0ad662d64a4766417424c2ccaf486d0ba8afc964736f6c634300081c0033",
  "linkReferences": {},
  "deployedLinkReferences": {}
}